{
    "contractName": "FBStaker",
    "abi": [
        {
            "inputs": [],
            "stateMutability": "nonpayable",
            "type": "constructor"
        },
        {
            "anonymous": false,
            "inputs": [
                {
                    "indexed": false,
                    "internalType": "address",
                    "name": "adr",
                    "type": "address"
                },
                {
                    "indexed": false,
                    "internalType": "uint256",
                    "name": "amount",
                    "type": "uint256"
                }
            ],
            "name": "BonusRetrieved",
            "type": "event"
        },
        {
            "anonymous": false,
            "inputs": [
                {
                    "indexed": false,
                    "internalType": "address",
                    "name": "Customer",
                    "type": "address"
                },
                {
                    "indexed": false,
                    "internalType": "contract IERC20",
                    "name": "Token",
                    "type": "address"
                }
            ],
            "name": "BonusRound",
            "type": "event"
        },
        {
            "anonymous": false,
            "inputs": [
                {
                    "indexed": false,
                    "internalType": "address",
                    "name": "adr",
                    "type": "address"
                },
                {
                    "indexed": false,
                    "internalType": "contract IERC20",
                    "name": "Tkn",
                    "type": "address"
                },
                {
                    "indexed": false,
                    "internalType": "uint256",
                    "name": "amount",
                    "type": "uint256"
                }
            ],
            "name": "TokenStaked",
            "type": "event"
        },
        {
            "anonymous": false,
            "inputs": [
                {
                    "indexed": false,
                    "internalType": "address",
                    "name": "adr",
                    "type": "address"
                },
                {
                    "indexed": false,
                    "internalType": "contract IERC20",
                    "name": "Tkn",
                    "type": "address"
                },
                {
                    "indexed": false,
                    "internalType": "uint256",
                    "name": "amount",
                    "type": "uint256"
                }
            ],
            "name": "TokenUnstaked",
            "type": "event"
        },
        {
            "inputs": [
                {
                    "internalType": "contract IERC20",
                    "name": "Token",
                    "type": "address"
                },
                {
                    "internalType": "uint256",
                    "name": "amount",
                    "type": "uint256"
                },
                {
                    "internalType": "address",
                    "name": "Aggregator",
                    "type": "address"
                }
            ],
            "name": "StakeTokens",
            "outputs": [],
            "stateMutability": "nonpayable",
            "type": "function"
        },
        {
            "inputs": [
                {
                    "internalType": "address",
                    "name": "Customer",
                    "type": "address"
                },
                {
                    "internalType": "contract IERC20",
                    "name": "Token",
                    "type": "address"
                },
                {
                    "internalType": "uint256",
                    "name": "amount",
                    "type": "uint256"
                },
                {
                    "internalType": "address",
                    "name": "Aggregator",
                    "type": "address"
                }
            ],
            "name": "UnstakeTokens",
            "outputs": [],
            "stateMutability": "nonpayable",
            "type": "function"
        },
        {
            "inputs": [
                {
                    "internalType": "address",
                    "name": "Customer",
                    "type": "address"
                },
                {
                    "internalType": "contract IERC20",
                    "name": "Token",
                    "type": "address"
                },
                {
                    "internalType": "address",
                    "name": "Aggregator",
                    "type": "address"
                }
            ],
            "name": "bonusRound",
            "outputs": [],
            "stateMutability": "nonpayable",
            "type": "function"
        },
        {
            "inputs": [
                {
                    "internalType": "address",
                    "name": "customer",
                    "type": "address"
                }
            ],
            "name": "dispatchBonuses",
            "outputs": [],
            "stateMutability": "nonpayable",
            "type": "function"
        },
        {
            "inputs": [],
            "name": "getMoneyBalance",
            "outputs": [
                {
                    "internalType": "uint256",
                    "name": "",
                    "type": "uint256"
                }
            ],
            "stateMutability": "view",
            "type": "function"
        },
        {
            "inputs": [
                {
                    "internalType": "contract ERC20",
                    "name": "Token",
                    "type": "address"
                }
            ],
            "name": "getTokenStakedBalance",
            "outputs": [
                {
                    "internalType": "uint256",
                    "name": "",
                    "type": "uint256"
                }
            ],
            "stateMutability": "view",
            "type": "function"
        }
    ],
    "bytecode": "6080604052600160005534801561001557600080fd5b506103e860405161002590610091565b61002f919061009e565b604051809103906000f08015801561004b573d6000803e3d6000fd5b506005805460ff196001600160a01b039390931661010002610100600160a81b031990911617919091166012179055600180546001600160a01b031916331790556100a7565b610d2f80610f2b83390190565b90815260200190565b610e75806100b66000396000f3fe608060405234801561001057600080fd5b50600436106100625760003560e01c80631928798114610067578063354435711461007c578063469c67541461008f5780639da3f76d146100a2578063b80f5f89146100b5578063e2f59ec9146100de575b600080fd5b61007a610075366004610950565b6100e6565b005b61007a61008a366004610a28565b6101ff565b61007a61009d36600461096c565b610368565b61007a6100b03660046109b6565b610455565b6100c86100c3366004610950565b610601565b6040516100d59190610ba8565b60405180910390f35b6100c861062e565b806001600160a01b0381166100fa57600080fd5b6001600160a01b03821660009081526003602052604090205480156101fa576001600160a01b03831660009081526003602052604080822091909155517f03d0edaee35df77920681c2dbc0bdb40062585adafef0b3547bd994c9de2668c906101669085908490610b38565b60405180910390a16005546040516323b872dd60e01b81526101009091046001600160a01b0316906323b872dd906101a690339087908690600401610afa565b602060405180830381600087803b1580156101c057600080fd5b505af11580156101d4573d6000803e3d6000fd5b505050506040513d601f19601f820116820180604052508101906101f89190610a08565b505b505050565b818061020a57600080fd5b836001600160a01b03811661021e57600080fd5b826001600160a01b03811661023257600080fd5b3360009081526002602090815260408083206001600160a01b038a16845290915290206001810154156102845760408051808201909152815481526001820154602082015261028490339087906106b9565b858160010160008282546102989190610bb1565b90915550504381556040517f17a90bf25d618e67de9bc66de5762d97787b11707d112164ab54c37111467f2b906102d49033908a908a90610afa565b60405180910390a16040516323b872dd60e01b81526001600160a01b038816906323b872dd9061030c90339030908b90600401610afa565b602060405180830381600087803b15801561032657600080fd5b505af115801561033a573d6000803e3d6000fd5b505050506040513d601f19601f8201168201806040525081019061035e9190610a08565b5050505050505050565b826001600160a01b03811661037c57600080fd5b826001600160a01b03811661039057600080fd5b826001600160a01b0381166103a457600080fd5b6001546001600160a01b031633146103bb57600080fd5b6001600160a01b0380871660009081526002602090815260408083209389168352929052206001810154156104135760408051808201909152815481526001820154602082015261040f90889087906106b9565b4381555b7f543e2a778776598bebee5d88699813b2a595a90ce0382574f046ce60b29085b38787604051610444929190610b1e565b60405180910390a150505050505050565b818061046057600080fd5b846001600160a01b03811661047457600080fd5b846001600160a01b03811661048857600080fd5b836001600160a01b03811661049c57600080fd5b6001600160a01b038089166000908152600260209081526040808320938b1683529290522060018101548711156104ee5760405162461bcd60e51b81526004016104e590610b51565b60405180910390fd5b60018101541561051d5760408051808201909152815481526001820154602082015261051d908a9088906106b9565b868160010160008282546105319190610dc1565b90915550504381556040517f4c5a68df1e54dd796657dc5832c88515a36dc92548af9951a0ef38dd61a3322e9061056d908b908b908b90610afa565b60405180910390a160405163a9059cbb60e01b81526001600160a01b0389169063a9059cbb906105a3908c908b90600401610b38565b602060405180830381600087803b1580156105bd57600080fd5b505af11580156105d1573d6000803e3d6000fd5b505050506040513d601f19601f820116820180604052508101906105f59190610a08565b50505050505050505050565b3360009081526002602090815260408083206001600160a01b03851684529091529020600101545b919050565b6005546040516370a0823160e01b815260009161010090046001600160a01b0316906370a0823190610664903390600401610ae6565b60206040518083038186803b15801561067c57600080fd5b505afa158015610690573d6000803e3d6000fd5b505050506040513d601f19601f820116820180604052508101906106b49190610a5e565b905090565b60006106c58284610700565b905080156101f8576001600160a01b038416600090815260036020526040812080548392906106f5908490610bb1565b909155505050505050565b600080826001600160a01b031663feaf968c6040518163ffffffff1660e01b815260040160a06040518083038186803b15801561073c57600080fd5b505afa158015610750573d6000803e3d6000fd5b505050506040513d601f19601f820116820180604052508101906107749190610a76565b5050509150506000836001600160a01b031663313ce5676040518163ffffffff1660e01b815260040160206040518083038186803b1580156107b557600080fd5b505afa1580156107c9573d6000803e3d6000fd5b505050506040513d601f19601f820116820180604052508101906107ed9190610ac5565b60055490915060ff808316911614610849576005548290610814908290849060ff16610877565b61081e9190610d1f565b610827866108ea565b86602001516108369190610da2565b6108409190610da2565b92505050610871565b81610853866108ea565b86602001516108629190610da2565b61086c9190610da2565b925050505b92915050565b60008160ff168360ff1610156108b0576108918383610dd8565b61089f9060ff16600a610c51565b6108a99085610d1f565b90506108e3565b8160ff168360ff1611156108e0576108c88284610dd8565b6108d69060ff16600a610c51565b6108a99085610bc9565b50825b9392505050565b8051600090431161090d5760405162461bcd60e51b81526004016104e590610b7a565b600054825162030ad991906109229043610dc1565b61092c9190610da2565b6108719190610bf7565b805169ffffffffffffffffffff8116811461062957600080fd5b600060208284031215610961578081fd5b81356108e381610e27565b600080600060608486031215610980578182fd5b833561098b81610e27565b9250602084013561099b81610e27565b915060408401356109ab81610e27565b809150509250925092565b600080600080608085870312156109cb578081fd5b84356109d681610e27565b935060208501356109e681610e27565b92506040850135915060608501356109fd81610e27565b939692955090935050565b600060208284031215610a19578081fd5b815180151581146108e3578182fd5b600080600060608486031215610a3c578283fd5b8335610a4781610e27565b92506020840135915060408401356109ab81610e27565b600060208284031215610a6f578081fd5b5051919050565b600080600080600060a08688031215610a8d578081fd5b610a9686610936565b9450602086015193506040860151925060608601519150610ab960808701610936565b90509295509295909350565b600060208284031215610ad6578081fd5b815160ff811681146108e3578182fd5b6001600160a01b0391909116815260200190565b6001600160a01b039384168152919092166020820152604081019190915260600190565b6001600160a01b0392831681529116602082015260400190565b6001600160a01b03929092168252602082015260400190565b6020808252600f908201526e0c2dadeeadce840e8dede40d0d2ced608b1b604082015260600190565b60208082526014908201527334b73b30b634b210313637b1b590373ab6b132b960611b604082015260600190565b90815260200190565b60008219821115610bc457610bc4610dfb565b500190565b600082610bd857610bd8610e11565b600160ff1b821460001984141615610bf257610bf2610dfb565b500590565b600082610c0657610c06610e11565b500490565b80825b6001808611610c1d5750610c48565b818704821115610c2f57610c2f610dfb565b80861615610c3c57918102915b9490941c938002610c0e565b94509492505050565b60006108e36000198484600082610c6a575060016108e3565b81610c77575060006108e3565b8160018114610c8d5760028114610c9757610cc4565b60019150506108e3565b60ff841115610ca857610ca8610dfb565b6001841b915084821115610cbe57610cbe610dfb565b506108e3565b5060208310610133831016604e8410600b8410161715610cf7575081810a83811115610cf257610cf2610dfb565b6108e3565b610d048484846001610c0b565b808604821115610d1657610d16610dfb565b02949350505050565b60006001600160ff1b0381841382841380821686840486111615610d4557610d45610dfb565b600160ff1b84871282811687830589121615610d6357610d63610dfb565b858712925087820587128484161615610d7e57610d7e610dfb565b87850587128184161615610d9457610d94610dfb565b505050929093029392505050565b6000816000190483118215151615610dbc57610dbc610dfb565b500290565b600082821015610dd357610dd3610dfb565b500390565b600060ff821660ff841680821015610df257610df2610dfb565b90039392505050565b634e487b7160e01b600052601160045260246000fd5b634e487b7160e01b600052601260045260246000fd5b6001600160a01b0381168114610e3c57600080fd5b5056fea264697066735822122087de68d9c4fadded36fc4e626c37d6abc85d0120cf9aa374609ff315dd0e3c2664736f6c6343000800003360806040523480156200001157600080fd5b5060405162000d2f38038062000d2f833981016040819052620000349162000279565b6040518060400160405280600f81526020016e4672616e6365426f72674d6f6e657960881b8152506040518060400160405280600381526020016246424d60e81b815250816003908051906020019062000090929190620001d3565b508051620000a6906004906020840190620001d3565b505050620000e033620000be620000e760201b60201c565b60ff16620000ce84600a620002ed565b620000da9190620002ed565b620000ec565b5062000362565b601290565b6001600160a01b0382166200011e5760405162461bcd60e51b8152600401620001159062000292565b60405180910390fd5b6200012c60008383620001ce565b8060026000828254620001409190620002d2565b90915550506001600160a01b038216600090815260208190526040812080548392906200016f908490620002d2565b90915550506040516001600160a01b038316906000907fddf252ad1be2c89b69c2b068fc378daa952ba7f163c4a11628f55a4df523b3ef90620001b4908590620002c9565b60405180910390a3620001ca60008383620001ce565b5050565b505050565b828054620001e1906200030f565b90600052602060002090601f01602090048101928262000205576000855562000250565b82601f106200022057805160ff191683800117855562000250565b8280016001018555821562000250579182015b828111156200025057825182559160200191906001019062000233565b506200025e92915062000262565b5090565b5b808211156200025e576000815560010162000263565b6000602082840312156200028b578081fd5b5051919050565b6020808252601f908201527f45524332303a206d696e7420746f20746865207a65726f206164647265737300604082015260600190565b90815260200190565b60008219821115620002e857620002e86200034c565b500190565b60008160001904831182151516156200030a576200030a6200034c565b500290565b6002810460018216806200032457607f821691505b602082108114156200034657634e487b7160e01b600052602260045260246000fd5b50919050565b634e487b7160e01b600052601160045260246000fd5b6109bd80620003726000396000f3fe608060405234801561001057600080fd5b50600436106100a95760003560e01c80633950935111610071578063395093511461012957806370a082311461013c57806395d89b411461014f578063a457c2d714610157578063a9059cbb1461016a578063dd62ed3e1461017d576100a9565b806306fdde03146100ae578063095ea7b3146100cc57806318160ddd146100ec57806323b872dd14610101578063313ce56714610114575b600080fd5b6100b6610190565b6040516100c391906106dd565b60405180910390f35b6100df6100da3660046106a9565b610222565b6040516100c391906106d2565b6100f461023f565b6040516100c39190610911565b6100df61010f36600461066e565b610245565b61011c6102de565b6040516100c3919061091a565b6100df6101373660046106a9565b6102e3565b6100f461014a36600461061b565b610337565b6100b6610356565b6100df6101653660046106a9565b610365565b6100df6101783660046106a9565b6103de565b6100f461018b36600461063c565b6103f2565b60606003805461019f9061094c565b80601f01602080910402602001604051908101604052809291908181526020018280546101cb9061094c565b80156102185780601f106101ed57610100808354040283529160200191610218565b820191906000526020600020905b8154815290600101906020018083116101fb57829003601f168201915b5050505050905090565b600061023661022f61041d565b8484610421565b50600192915050565b60025490565b60006102528484846104d5565b6001600160a01b03841660009081526001602052604081208161027361041d565b6001600160a01b03166001600160a01b03168152602001908152602001600020549050828110156102bf5760405162461bcd60e51b81526004016102b6906107fb565b60405180910390fd5b6102d3856102cb61041d565b858403610421565b506001949350505050565b601290565b60006102366102f061041d565b8484600160006102fe61041d565b6001600160a01b03908116825260208083019390935260409182016000908120918b16815292529020546103329190610928565b610421565b6001600160a01b0381166000908152602081905260409020545b919050565b60606004805461019f9061094c565b6000806001600061037461041d565b6001600160a01b03908116825260208083019390935260409182016000908120918816815292529020549050828110156103c05760405162461bcd60e51b81526004016102b6906108cc565b6103d46103cb61041d565b85858403610421565b5060019392505050565b60006102366103eb61041d565b84846104d5565b6001600160a01b03918216600090815260016020908152604080832093909416825291909152205490565b3390565b6001600160a01b0383166104475760405162461bcd60e51b81526004016102b690610888565b6001600160a01b03821661046d5760405162461bcd60e51b81526004016102b690610773565b6001600160a01b0380841660008181526001602090815260408083209487168084529490915290819020849055517f8c5be1e5ebec7d5bd14f71427d1e84f3dd0314c0f7b2291e5b200ac8c7c3b925906104c8908590610911565b60405180910390a3505050565b6001600160a01b0383166104fb5760405162461bcd60e51b81526004016102b690610843565b6001600160a01b0382166105215760405162461bcd60e51b81526004016102b690610730565b61052c8383836105ff565b6001600160a01b038316600090815260208190526040902054818110156105655760405162461bcd60e51b81526004016102b6906107b5565b6001600160a01b0380851660009081526020819052604080822085850390559185168152908120805484929061059c908490610928565b92505081905550826001600160a01b0316846001600160a01b03167fddf252ad1be2c89b69c2b068fc378daa952ba7f163c4a11628f55a4df523b3ef846040516105e69190610911565b60405180910390a36105f98484846105ff565b50505050565b505050565b80356001600160a01b038116811461035157600080fd5b60006020828403121561062c578081fd5b61063582610604565b9392505050565b6000806040838503121561064e578081fd5b61065783610604565b915061066560208401610604565b90509250929050565b600080600060608486031215610682578081fd5b61068b84610604565b925061069960208501610604565b9150604084013590509250925092565b600080604083850312156106bb578182fd5b6106c483610604565b946020939093013593505050565b901515815260200190565b6000602080835283518082850152825b81811015610709578581018301518582016040015282016106ed565b8181111561071a5783604083870101525b50601f01601f1916929092016040019392505050565b60208082526023908201527f45524332303a207472616e7366657220746f20746865207a65726f206164647260408201526265737360e81b606082015260800190565b60208082526022908201527f45524332303a20617070726f766520746f20746865207a65726f206164647265604082015261737360f01b606082015260800190565b60208082526026908201527f45524332303a207472616e7366657220616d6f756e7420657863656564732062604082015265616c616e636560d01b606082015260800190565b60208082526028908201527f45524332303a207472616e7366657220616d6f756e74206578636565647320616040820152676c6c6f77616e636560c01b606082015260800190565b60208082526025908201527f45524332303a207472616e736665722066726f6d20746865207a65726f206164604082015264647265737360d81b606082015260800190565b60208082526024908201527f45524332303a20617070726f76652066726f6d20746865207a65726f206164646040820152637265737360e01b606082015260800190565b60208082526025908201527f45524332303a2064656372656173656420616c6c6f77616e63652062656c6f77604082015264207a65726f60d81b606082015260800190565b90815260200190565b60ff91909116815260200190565b6000821982111561094757634e487b7160e01b81526011600452602481fd5b500190565b60028104600182168061096057607f821691505b6020821081141561098157634e487b7160e01b600052602260045260246000fd5b5091905056fea2646970667358221220c4251415c2ab7b8839d1fbba02e2d15cf9eddefad7849e0bc95ec2a135182e9364736f6c63430008000033",
    "sourcePath": "/home/pec/Formation/Ethereum/Staking/contracts/FBStaker.sol",
    "compiler": {
        "name": "solc",
        "version": "0.8.0+commit.c7dfd78e"
    },
    "functionHashes": {
        "StakeTokens(address,uint256,address)": "35443571",
        "UnstakeTokens(address,address,uint256,address)": "9da3f76d",
        "bonusRound(address,address,address)": "469c6754",
        "dispatchBonuses(address)": "19287981",
        "getMoneyBalance()": "e2f59ec9",
        "getTokenStakedBalance(address)": "b80f5f89"
    },
    "gasEstimates": {
        "creation": {
            "codeDepositCost": "740200",
            "executionCost": "infinite",
            "totalCost": "infinite"
        },
        "external": {
            "StakeTokens(address,uint256,address)": "infinite",
            "UnstakeTokens(address,address,uint256,address)": "infinite",
            "bonusRound(address,address,address)": "infinite",
            "dispatchBonuses(address)": "infinite",
            "getMoneyBalance()": "infinite",
            "getTokenStakedBalance(address)": "1416"
        },
        "internal": {
            "aggregateBonus(address,address,struct Stake memory)": "infinite",
            "computeBonus(struct Stake memory,address)": "infinite",
            "getRate(struct Stake memory)": "infinite",
            "scalePrice(int256,uint8,uint8)": "infinite"
        }
    }
}