{
    "contractName": "FBStaker",
    "abi": [
        {
            "inputs": [],
            "stateMutability": "nonpayable",
            "type": "constructor"
        },
        {
            "inputs": [
                {
                    "internalType": "contract IERC20",
                    "name": "Token",
                    "type": "address"
                },
                {
                    "internalType": "uint256",
                    "name": "amount",
                    "type": "uint256"
                },
                {
                    "internalType": "address",
                    "name": "Aggregator",
                    "type": "address"
                }
            ],
            "name": "StakeTokens",
            "outputs": [],
            "stateMutability": "nonpayable",
            "type": "function"
        },
        {
            "inputs": [
                {
                    "internalType": "contract IERC20",
                    "name": "Token",
                    "type": "address"
                },
                {
                    "internalType": "uint256",
                    "name": "amount",
                    "type": "uint256"
                },
                {
                    "internalType": "address",
                    "name": "Aggregator",
                    "type": "address"
                }
            ],
            "name": "UnstakeTokens",
            "outputs": [],
            "stateMutability": "nonpayable",
            "type": "function"
        },
        {
            "inputs": [
                {
                    "internalType": "contract IERC20",
                    "name": "Token",
                    "type": "address"
                },
                {
                    "internalType": "address",
                    "name": "Aggregator",
                    "type": "address"
                }
            ],
            "name": "evaluateBonus",
            "outputs": [
                {
                    "internalType": "int256",
                    "name": "",
                    "type": "int256"
                }
            ],
            "stateMutability": "view",
            "type": "function"
        },
        {
            "inputs": [],
            "name": "getMoneyBalance",
            "outputs": [
                {
                    "internalType": "uint256",
                    "name": "",
                    "type": "uint256"
                }
            ],
            "stateMutability": "view",
            "type": "function"
        },
        {
            "inputs": [
                {
                    "internalType": "contract ERC20",
                    "name": "Token",
                    "type": "address"
                }
            ],
            "name": "getTokenStakedBalance",
            "outputs": [
                {
                    "internalType": "uint256",
                    "name": "",
                    "type": "uint256"
                }
            ],
            "stateMutability": "view",
            "type": "function"
        }
    ],
    "bytecode": "60806040526001805534801561001457600080fd5b506103e8604051610024906100f4565b61002e9190610129565b604051809103906000f08015801561004a573d6000803e3d6000fd5b50600080546001600160a01b0319166001600160a01b0392831617908190556040805163313ce56760e01b81529051919092169163313ce567916004808301926020929190829003018186803b1580156100a357600080fd5b505afa1580156100b7573d6000803e3d6000fd5b505050506040513d601f19601f820116820180604052508101906100db9190610101565b6002805460ff191660ff92909216919091179055610132565b610d2f80610d5283390190565b600060208284031215610112578081fd5b815160ff81168114610122578182fd5b9392505050565b90815260200190565b610c11806101416000396000f3fe608060405234801561001057600080fd5b50600436106100575760003560e01c8063354435711461005c578063b80f5f8914610071578063dbc9eda31461009a578063e2f59ec9146100ad578063ef9c337d146100b5575b600080fd5b61006f61006a3660046107d3565b6100c8565b005b61008461007f36600461077f565b610245565b60405161009191906108ed565b60405180910390f35b6100846100a836600461079b565b610272565b6100846102c0565b61006f6100c33660046107d3565b610346565b81806100d357600080fd5b6001600160a01b0384166100f757634e487b7160e01b600052600160045260246000fd5b6001600160a01b03821661011b57634e487b7160e01b600052600160045260246000fd5b3360009081526003602090815260408083206001600160a01b0388168085529083528184208251808401845281548152600190910154818501529084526005909252822080549192869261017090849061094d565b9091555061018090508382610428565b3360009081526003602090815260408083206001600160a01b0389168452909152812060010180548692906101b690849061094d565b90915550506040516323b872dd60e01b81526001600160a01b038616906323b872dd906101eb903390309089906004016108b0565b602060405180830381600087803b15801561020557600080fd5b505af1158015610219573d6000803e3d6000fd5b505050506040513d601f19601f8201168201806040525081019061023d919061075f565b505050505050565b3360009081526003602090815260408083206001600160a01b03851684529091529020600101545b919050565b3360009081526003602090815260408083206001600160a01b0386168452825280832081518083019092528054825260010154918101919091526102b68184610512565b9150505b92915050565b600080546040516370a0823160e01b81526001600160a01b03909116906370a08231906102f190339060040161089c565b60206040518083038186803b15801561030957600080fd5b505afa15801561031d573d6000803e3d6000fd5b505050506040513d601f19601f820116820180604052508101906103419190610814565b905090565b818061035157600080fd5b6001600160a01b03841661036457600080fd5b6001600160a01b03821661037757600080fd5b3360009081526003602090815260408083206001600160a01b0388168452825291829020825180840190935280548352600101549082018190528411156103d95760405162461bcd60e51b81526004016103d0906108f6565b60405180910390fd5b6103e38382610428565b83816020018181516103f59190610b5d565b9052506040516323b872dd60e01b81526001600160a01b038616906323b872dd906101eb903090339089906004016108b0565b60006104348284610512565b90506000811215610443575060005b3360009081526004602052604090204360019091018190558252801561050d57336000908152600460205260408120805483929061048290849061094d565b909155505060005460405163a9059cbb60e01b81526001600160a01b039091169063a9059cbb906104b990339085906004016108d4565b602060405180830381600087803b1580156104d357600080fd5b505af11580156104e7573d6000803e3d6000fd5b505050506040513d601f19601f8201168201806040525081019061050b919061075f565b505b505050565b600080826001600160a01b031663feaf968c6040518163ffffffff1660e01b815260040160a06040518083038186803b15801561054e57600080fd5b505afa158015610562573d6000803e3d6000fd5b505050506040513d601f19601f82011682018060405250810190610586919061082c565b5050509150506000836001600160a01b031663313ce5676040518163ffffffff1660e01b815260040160206040518083038186803b1580156105c757600080fd5b505afa1580156105db573d6000803e3d6000fd5b505050506040513d601f19601f820116820180604052508101906105ff919061087b565b60025490915060ff80831691161461065a57600254610624908390839060ff16610686565b8261062e876106f9565b876020015161063d9190610b3e565b6106479190610abb565b6106519190610abb565b925050506102ba565b81610664866106f9565b86602001516106739190610b3e565b61067d9190610abb565b95945050505050565b60008160ff168360ff1610156106bf576106a08383610b74565b6106ae9060ff16600a6109ed565b6106b89085610abb565b90506106f2565b8160ff168360ff1611156106ef576106d78284610b74565b6106e59060ff16600a6109ed565b6106b89085610965565b50825b9392505050565b8051600090431161071c5760405162461bcd60e51b81526004016103d09061091f565b60015482516202539691906107319043610b5d565b61073b9190610b3e565b6102ba9190610993565b805169ffffffffffffffffffff8116811461026d57600080fd5b600060208284031215610770578081fd5b815180151581146106f2578182fd5b600060208284031215610790578081fd5b81356106f281610bc3565b600080604083850312156107ad578081fd5b82356107b881610bc3565b915060208301356107c881610bc3565b809150509250929050565b6000806000606084860312156107e7578081fd5b83356107f281610bc3565b925060208401359150604084013561080981610bc3565b809150509250925092565b600060208284031215610825578081fd5b5051919050565b600080600080600060a08688031215610843578081fd5b61084c86610745565b945060208601519350604086015192506060860151915061086f60808701610745565b90509295509295909350565b60006020828403121561088c578081fd5b815160ff811681146106f2578182fd5b6001600160a01b0391909116815260200190565b6001600160a01b039384168152919092166020820152604081019190915260600190565b6001600160a01b03929092168252602082015260400190565b90815260200190565b6020808252600f908201526e0c2dadeeadce840e8dede40d0d2ced608b1b604082015260600190565b60208082526014908201527334b73b30b634b210313637b1b590373ab6b132b960611b604082015260600190565b6000821982111561096057610960610b97565b500190565b60008261097457610974610bad565b600160ff1b82146000198414161561098e5761098e610b97565b500590565b6000826109a2576109a2610bad565b500490565b80825b60018086116109b957506109e4565b8187048211156109cb576109cb610b97565b808616156109d857918102915b9490941c9380026109aa565b94509492505050565b60006106f26000198484600082610a06575060016106f2565b81610a13575060006106f2565b8160018114610a295760028114610a3357610a60565b60019150506106f2565b60ff841115610a4457610a44610b97565b6001841b915084821115610a5a57610a5a610b97565b506106f2565b5060208310610133831016604e8410600b8410161715610a93575081810a83811115610a8e57610a8e610b97565b6106f2565b610aa084848460016109a7565b808604821115610ab257610ab2610b97565b02949350505050565b60006001600160ff1b0381841382841380821686840486111615610ae157610ae1610b97565b600160ff1b84871282811687830589121615610aff57610aff610b97565b858712925087820587128484161615610b1a57610b1a610b97565b87850587128184161615610b3057610b30610b97565b505050929093029392505050565b6000816000190483118215151615610b5857610b58610b97565b500290565b600082821015610b6f57610b6f610b97565b500390565b600060ff821660ff841680821015610b8e57610b8e610b97565b90039392505050565b634e487b7160e01b600052601160045260246000fd5b634e487b7160e01b600052601260045260246000fd5b6001600160a01b0381168114610bd857600080fd5b5056fea2646970667358221220b6259425557e93b64abafe69547ee47cbd8faccbbb6ca3fa4612c16eecde2ba564736f6c6343000800003360806040523480156200001157600080fd5b5060405162000d2f38038062000d2f833981016040819052620000349162000279565b6040518060400160405280600f81526020016e4672616e6365426f72674d6f6e657960881b8152506040518060400160405280600381526020016246424d60e81b815250816003908051906020019062000090929190620001d3565b508051620000a6906004906020840190620001d3565b505050620000e033620000be620000e760201b60201c565b60ff16620000ce84600a620002ed565b620000da9190620002ed565b620000ec565b5062000362565b601290565b6001600160a01b0382166200011e5760405162461bcd60e51b8152600401620001159062000292565b60405180910390fd5b6200012c60008383620001ce565b8060026000828254620001409190620002d2565b90915550506001600160a01b038216600090815260208190526040812080548392906200016f908490620002d2565b90915550506040516001600160a01b038316906000907fddf252ad1be2c89b69c2b068fc378daa952ba7f163c4a11628f55a4df523b3ef90620001b4908590620002c9565b60405180910390a3620001ca60008383620001ce565b5050565b505050565b828054620001e1906200030f565b90600052602060002090601f01602090048101928262000205576000855562000250565b82601f106200022057805160ff191683800117855562000250565b8280016001018555821562000250579182015b828111156200025057825182559160200191906001019062000233565b506200025e92915062000262565b5090565b5b808211156200025e576000815560010162000263565b6000602082840312156200028b578081fd5b5051919050565b6020808252601f908201527f45524332303a206d696e7420746f20746865207a65726f206164647265737300604082015260600190565b90815260200190565b60008219821115620002e857620002e86200034c565b500190565b60008160001904831182151516156200030a576200030a6200034c565b500290565b6002810460018216806200032457607f821691505b602082108114156200034657634e487b7160e01b600052602260045260246000fd5b50919050565b634e487b7160e01b600052601160045260246000fd5b6109bd80620003726000396000f3fe608060405234801561001057600080fd5b50600436106100a95760003560e01c80633950935111610071578063395093511461012957806370a082311461013c57806395d89b411461014f578063a457c2d714610157578063a9059cbb1461016a578063dd62ed3e1461017d576100a9565b806306fdde03146100ae578063095ea7b3146100cc57806318160ddd146100ec57806323b872dd14610101578063313ce56714610114575b600080fd5b6100b6610190565b6040516100c391906106dd565b60405180910390f35b6100df6100da3660046106a9565b610222565b6040516100c391906106d2565b6100f461023f565b6040516100c39190610911565b6100df61010f36600461066e565b610245565b61011c6102de565b6040516100c3919061091a565b6100df6101373660046106a9565b6102e3565b6100f461014a36600461061b565b610337565b6100b6610356565b6100df6101653660046106a9565b610365565b6100df6101783660046106a9565b6103de565b6100f461018b36600461063c565b6103f2565b60606003805461019f9061094c565b80601f01602080910402602001604051908101604052809291908181526020018280546101cb9061094c565b80156102185780601f106101ed57610100808354040283529160200191610218565b820191906000526020600020905b8154815290600101906020018083116101fb57829003601f168201915b5050505050905090565b600061023661022f61041d565b8484610421565b50600192915050565b60025490565b60006102528484846104d5565b6001600160a01b03841660009081526001602052604081208161027361041d565b6001600160a01b03166001600160a01b03168152602001908152602001600020549050828110156102bf5760405162461bcd60e51b81526004016102b6906107fb565b60405180910390fd5b6102d3856102cb61041d565b858403610421565b506001949350505050565b601290565b60006102366102f061041d565b8484600160006102fe61041d565b6001600160a01b03908116825260208083019390935260409182016000908120918b16815292529020546103329190610928565b610421565b6001600160a01b0381166000908152602081905260409020545b919050565b60606004805461019f9061094c565b6000806001600061037461041d565b6001600160a01b03908116825260208083019390935260409182016000908120918816815292529020549050828110156103c05760405162461bcd60e51b81526004016102b6906108cc565b6103d46103cb61041d565b85858403610421565b5060019392505050565b60006102366103eb61041d565b84846104d5565b6001600160a01b03918216600090815260016020908152604080832093909416825291909152205490565b3390565b6001600160a01b0383166104475760405162461bcd60e51b81526004016102b690610888565b6001600160a01b03821661046d5760405162461bcd60e51b81526004016102b690610773565b6001600160a01b0380841660008181526001602090815260408083209487168084529490915290819020849055517f8c5be1e5ebec7d5bd14f71427d1e84f3dd0314c0f7b2291e5b200ac8c7c3b925906104c8908590610911565b60405180910390a3505050565b6001600160a01b0383166104fb5760405162461bcd60e51b81526004016102b690610843565b6001600160a01b0382166105215760405162461bcd60e51b81526004016102b690610730565b61052c8383836105ff565b6001600160a01b038316600090815260208190526040902054818110156105655760405162461bcd60e51b81526004016102b6906107b5565b6001600160a01b0380851660009081526020819052604080822085850390559185168152908120805484929061059c908490610928565b92505081905550826001600160a01b0316846001600160a01b03167fddf252ad1be2c89b69c2b068fc378daa952ba7f163c4a11628f55a4df523b3ef846040516105e69190610911565b60405180910390a36105f98484846105ff565b50505050565b505050565b80356001600160a01b038116811461035157600080fd5b60006020828403121561062c578081fd5b61063582610604565b9392505050565b6000806040838503121561064e578081fd5b61065783610604565b915061066560208401610604565b90509250929050565b600080600060608486031215610682578081fd5b61068b84610604565b925061069960208501610604565b9150604084013590509250925092565b600080604083850312156106bb578182fd5b6106c483610604565b946020939093013593505050565b901515815260200190565b6000602080835283518082850152825b81811015610709578581018301518582016040015282016106ed565b8181111561071a5783604083870101525b50601f01601f1916929092016040019392505050565b60208082526023908201527f45524332303a207472616e7366657220746f20746865207a65726f206164647260408201526265737360e81b606082015260800190565b60208082526022908201527f45524332303a20617070726f766520746f20746865207a65726f206164647265604082015261737360f01b606082015260800190565b60208082526026908201527f45524332303a207472616e7366657220616d6f756e7420657863656564732062604082015265616c616e636560d01b606082015260800190565b60208082526028908201527f45524332303a207472616e7366657220616d6f756e74206578636565647320616040820152676c6c6f77616e636560c01b606082015260800190565b60208082526025908201527f45524332303a207472616e736665722066726f6d20746865207a65726f206164604082015264647265737360d81b606082015260800190565b60208082526024908201527f45524332303a20617070726f76652066726f6d20746865207a65726f206164646040820152637265737360e01b606082015260800190565b60208082526025908201527f45524332303a2064656372656173656420616c6c6f77616e63652062656c6f77604082015264207a65726f60d81b606082015260800190565b90815260200190565b60ff91909116815260200190565b6000821982111561094757634e487b7160e01b81526011600452602481fd5b500190565b60028104600182168061096057607f821691505b6020821081141561098157634e487b7160e01b600052602260045260246000fd5b5091905056fea26469706673582212202c89726e0e3d210e47ec2d9171b54b3005027c852e6998e9202457aa3f13e47c64736f6c63430008000033",
    "sourcePath": "/home/pec/Formation/Ethereum/Staking/contracts/FBStaker.sol",
    "compiler": {
        "name": "solc",
        "version": "0.8.0+commit.c7dfd78e"
    },
    "functionHashes": {
        "StakeTokens(address,uint256,address)": "35443571",
        "UnstakeTokens(address,uint256,address)": "ef9c337d",
        "evaluateBonus(address,address)": "dbc9eda3",
        "getMoneyBalance()": "e2f59ec9",
        "getTokenStakedBalance(address)": "b80f5f89"
    },
    "gasEstimates": {
        "creation": {
            "codeDepositCost": "617800",
            "executionCost": "infinite",
            "totalCost": "infinite"
        },
        "external": {
            "StakeTokens(address,uint256,address)": "infinite",
            "UnstakeTokens(address,uint256,address)": "infinite",
            "evaluateBonus(address,address)": "infinite",
            "getMoneyBalance()": "infinite",
            "getTokenStakedBalance(address)": "1350"
        },
        "internal": {
            "computeBonus(struct Stake memory,address)": "infinite",
            "getRate(struct Stake memory)": "infinite",
            "retrieveBonus(address,struct Stake memory)": "infinite",
            "scalePrice(int256,uint8,uint8)": "infinite"
        }
    }
}