{
  "contractName": "FBStaker",
  "abi": [
    {
      "inputs": [],
      "stateMutability": "nonpayable",
      "type": "constructor"
    },
    {
      "anonymous": false,
      "inputs": [
        {
          "indexed": false,
          "internalType": "address",
          "name": "adr",
          "type": "address"
        },
        {
          "indexed": false,
          "internalType": "uint256",
          "name": "amount",
          "type": "uint256"
        }
      ],
      "name": "BomusRetrieved",
      "type": "event"
    },
    {
      "anonymous": false,
      "inputs": [
        {
          "indexed": false,
          "internalType": "address",
          "name": "adr",
          "type": "address"
        },
        {
          "indexed": false,
          "internalType": "contract IERC20",
          "name": "Tkn",
          "type": "address"
        },
        {
          "indexed": false,
          "internalType": "uint256",
          "name": "amount",
          "type": "uint256"
        }
      ],
      "name": "TokenStaked",
      "type": "event"
    },
    {
      "anonymous": false,
      "inputs": [
        {
          "indexed": false,
          "internalType": "address",
          "name": "adr",
          "type": "address"
        },
        {
          "indexed": false,
          "internalType": "contract IERC20",
          "name": "Tkn",
          "type": "address"
        },
        {
          "indexed": false,
          "internalType": "uint256",
          "name": "amount",
          "type": "uint256"
        }
      ],
      "name": "TokenUnstaked",
      "type": "event"
    },
    {
      "inputs": [],
      "name": "getMoneyBalance",
      "outputs": [
        {
          "internalType": "uint256",
          "name": "",
          "type": "uint256"
        }
      ],
      "stateMutability": "view",
      "type": "function"
    },
    {
      "inputs": [
        {
          "internalType": "contract ERC20",
          "name": "Token",
          "type": "address"
        }
      ],
      "name": "getTokenStakedBalance",
      "outputs": [
        {
          "internalType": "uint256",
          "name": "",
          "type": "uint256"
        }
      ],
      "stateMutability": "view",
      "type": "function"
    },
    {
      "inputs": [
        {
          "internalType": "contract IERC20",
          "name": "Token",
          "type": "address"
        },
        {
          "internalType": "address",
          "name": "Aggregator",
          "type": "address"
        }
      ],
      "name": "evaluateBonus",
      "outputs": [
        {
          "internalType": "int256",
          "name": "",
          "type": "int256"
        }
      ],
      "stateMutability": "view",
      "type": "function"
    },
    {
      "inputs": [
        {
          "internalType": "address",
          "name": "customer",
          "type": "address"
        },
        {
          "internalType": "contract IERC20",
          "name": "Token",
          "type": "address"
        },
        {
          "internalType": "address",
          "name": "Aggregator",
          "type": "address"
        }
      ],
      "name": "retrieveBonus",
      "outputs": [],
      "stateMutability": "nonpayable",
      "type": "function"
    },
    {
      "inputs": [
        {
          "internalType": "contract IERC20",
          "name": "Token",
          "type": "address"
        },
        {
          "internalType": "uint256",
          "name": "amount",
          "type": "uint256"
        },
        {
          "internalType": "address",
          "name": "Aggregator",
          "type": "address"
        }
      ],
      "name": "StakeTokens",
      "outputs": [],
      "stateMutability": "nonpayable",
      "type": "function"
    },
    {
      "inputs": [
        {
          "internalType": "address",
          "name": "Customer",
          "type": "address"
        },
        {
          "internalType": "contract IERC20",
          "name": "Token",
          "type": "address"
        },
        {
          "internalType": "uint256",
          "name": "amount",
          "type": "uint256"
        },
        {
          "internalType": "address",
          "name": "Aggregator",
          "type": "address"
        }
      ],
      "name": "UnstakeTokens",
      "outputs": [],
      "stateMutability": "nonpayable",
      "type": "function"
    }
  ],
  "bytecode": "0x608060405260016000553480156200001657600080fd5b506103e8604051620000289062000156565b620000349190620001b8565b604051809103906000f08015801562000051573d6000803e3d6000fd5b50600460016101000a81548173ffffffffffffffffffffffffffffffffffffffff021916908373ffffffffffffffffffffffffffffffffffffffff160217905550600460019054906101000a900473ffffffffffffffffffffffffffffffffffffffff1673ffffffffffffffffffffffffffffffffffffffff1663313ce5676040518163ffffffff1660e01b815260040160206040518083038186803b158015620000fb57600080fd5b505afa15801562000110573d6000803e3d6000fd5b505050506040513d601f19601f820116820180604052508101906200013691906200017b565b600460006101000a81548160ff021916908360ff1602179055506200021a565b6119068062001c3083390190565b600081519050620001758162000200565b92915050565b6000602082840312156200018e57600080fd5b60006200019e8482850162000164565b91505092915050565b620001b281620001ec565b82525050565b6000602082019050620001cf6000830184620001a7565b92915050565b6000819050919050565b600060ff82169050919050565b6000620001f982620001d5565b9050919050565b6200020b81620001df565b81146200021757600080fd5b50565b611a06806200022a6000396000f3fe608060405234801561001057600080fd5b50600436106100625760003560e01c806335443571146100675780636e36f0fc146100835780639da3f76d1461009f578063b80f5f89146100bb578063dbc9eda3146100eb578063e2f59ec91461011b575b600080fd5b610081600480360381019061007c91906110a8565b610139565b005b61009d60048036038101906100989190610f68565b610478565b005b6100b960048036038101906100b49190610fb7565b6106bd565b005b6100d560048036038101906100d09190611043565b610955565b6040516100e29190611389565b60405180910390f35b6101056004803603810190610100919061106c565b6109de565b604051610112919061132e565b60405180910390f35b610123610a91565b6040516101309190611389565b60405180910390f35b81600081141561014857600080fd5b600073ffffffffffffffffffffffffffffffffffffffff168473ffffffffffffffffffffffffffffffffffffffff1614156101ac577f4e487b7100000000000000000000000000000000000000000000000000000000600052600160045260246000fd5b600073ffffffffffffffffffffffffffffffffffffffff168273ffffffffffffffffffffffffffffffffffffffff161415610210577f4e487b7100000000000000000000000000000000000000000000000000000000600052600160045260246000fd5b6000600160003373ffffffffffffffffffffffffffffffffffffffff1673ffffffffffffffffffffffffffffffffffffffff16815260200190815260200160002060008673ffffffffffffffffffffffffffffffffffffffff1673ffffffffffffffffffffffffffffffffffffffff16815260200190815260200160002060405180604001604052908160008201548152602001600182015481525050905083600360008773ffffffffffffffffffffffffffffffffffffffff1673ffffffffffffffffffffffffffffffffffffffff16815260200190815260200160002060008282546102fe91906113b5565b925050819055507f17a90bf25d618e67de9bc66de5762d97787b11707d112164ab54c37111467f2b338686604051610338939291906112ce565b60405180910390a161034b338483610b43565b83600160003373ffffffffffffffffffffffffffffffffffffffff1673ffffffffffffffffffffffffffffffffffffffff16815260200190815260200160002060008773ffffffffffffffffffffffffffffffffffffffff1673ffffffffffffffffffffffffffffffffffffffff16815260200190815260200160002060010160008282546103da91906113b5565b925050819055508473ffffffffffffffffffffffffffffffffffffffff166323b872dd3330876040518463ffffffff1660e01b815260040161041e93929190611297565b602060405180830381600087803b15801561043857600080fd5b505af115801561044c573d6000803e3d6000fd5b505050506040513d601f19601f82011682018060405250810190610470919061101a565b505050505050565b6000600160008573ffffffffffffffffffffffffffffffffffffffff1673ffffffffffffffffffffffffffffffffffffffff16815260200190815260200160002060008473ffffffffffffffffffffffffffffffffffffffff1673ffffffffffffffffffffffffffffffffffffffff168152602001908152602001600020604051806040016040529081600082015481526020016001820154815250509050610522848383610b43565b6000600260008673ffffffffffffffffffffffffffffffffffffffff1673ffffffffffffffffffffffffffffffffffffffff168152602001908152602001600020600001549050600081146106b65780600260008773ffffffffffffffffffffffffffffffffffffffff1673ffffffffffffffffffffffffffffffffffffffff16815260200190815260200160002060000160008282546105c391906113b5565b925050819055507f9e657b65aa8c41c00ae8d4100329965794deeed7dbffd9d12c1cdf27680dcc6985826040516105fb929190611305565b60405180910390a1600460019054906101000a900473ffffffffffffffffffffffffffffffffffffffff1673ffffffffffffffffffffffffffffffffffffffff166323b872dd3387846040518463ffffffff1660e01b815260040161066293929190611297565b602060405180830381600087803b15801561067c57600080fd5b505af1158015610690573d6000803e3d6000fd5b505050506040513d601f19601f820116820180604052508101906106b4919061101a565b505b5050505050565b8160008114156106cc57600080fd5b600073ffffffffffffffffffffffffffffffffffffffff168473ffffffffffffffffffffffffffffffffffffffff16141561070657600080fd5b600073ffffffffffffffffffffffffffffffffffffffff168273ffffffffffffffffffffffffffffffffffffffff16141561074057600080fd5b600073ffffffffffffffffffffffffffffffffffffffff168573ffffffffffffffffffffffffffffffffffffffff16141561077a57600080fd5b6000600160008773ffffffffffffffffffffffffffffffffffffffff1673ffffffffffffffffffffffffffffffffffffffff16815260200190815260200160002060008673ffffffffffffffffffffffffffffffffffffffff1673ffffffffffffffffffffffffffffffffffffffff1681526020019081526020016000206040518060400160405290816000820154815260200160018201548152505090508381602001511015610860576040517f08c379a000000000000000000000000000000000000000000000000000000000815260040161085790611349565b60405180910390fd5b61086b868483610b43565b838160200181815161087d9190611788565b915081815250507f4c5a68df1e54dd796657dc5832c88515a36dc92548af9951a0ef38dd61a3322e8686866040516108b7939291906112ce565b60405180910390a18473ffffffffffffffffffffffffffffffffffffffff1663a9059cbb87866040518363ffffffff1660e01b81526004016108fa929190611305565b602060405180830381600087803b15801561091457600080fd5b505af1158015610928573d6000803e3d6000fd5b505050506040513d601f19601f8201168201806040525081019061094c919061101a565b50505050505050565b6000600160003373ffffffffffffffffffffffffffffffffffffffff1673ffffffffffffffffffffffffffffffffffffffff16815260200190815260200160002060008373ffffffffffffffffffffffffffffffffffffffff1673ffffffffffffffffffffffffffffffffffffffff168152602001908152602001600020600101549050919050565b600080600160003373ffffffffffffffffffffffffffffffffffffffff1673ffffffffffffffffffffffffffffffffffffffff16815260200190815260200160002060008573ffffffffffffffffffffffffffffffffffffffff1673ffffffffffffffffffffffffffffffffffffffff168152602001908152602001600020604051806040016040529081600082015481526020016001820154815250509050610a888184610c0b565b91505092915050565b6000600460019054906101000a900473ffffffffffffffffffffffffffffffffffffffff1673ffffffffffffffffffffffffffffffffffffffff166370a08231336040518263ffffffff1660e01b8152600401610aee919061127c565b60206040518083038186803b158015610b0657600080fd5b505afa158015610b1a573d6000803e3d6000fd5b505050506040513d601f19601f82011682018060405250810190610b3e91906110f7565b905090565b6000610b4f8284610c0b565b905043600260008673ffffffffffffffffffffffffffffffffffffffff1673ffffffffffffffffffffffffffffffffffffffff16815260200190815260200160002060010181905550438260000181815250506000811315610c055780600260008673ffffffffffffffffffffffffffffffffffffffff1673ffffffffffffffffffffffffffffffffffffffff1681526020019081526020016000206000016000828254610bfd91906113b5565b925050819055505b50505050565b6000808273ffffffffffffffffffffffffffffffffffffffff1663feaf968c6040518163ffffffff1660e01b815260040160a06040518083038186803b158015610c5457600080fd5b505afa158015610c68573d6000803e3d6000fd5b505050506040513d601f19601f82011682018060405250810190610c8c9190611120565b50505091505060008373ffffffffffffffffffffffffffffffffffffffff1663313ce5676040518163ffffffff1660e01b815260040160206040518083038186803b158015610cda57600080fd5b505afa158015610cee573d6000803e3d6000fd5b505050506040513d601f19601f82011682018060405250810190610d129190611197565b9050600460009054906101000a900460ff1660ff168160ff1614610d8057610d4a8282600460009054906101000a900460ff16610dae565b82610d5487610e31565b8760200151610d63919061172e565b610d6d9190611617565b610d779190611617565b92505050610da8565b81610d8a86610e31565b8660200151610d99919061172e565b610da39190611617565b925050505b92915050565b60008160ff168360ff161015610deb578282610dca91906117bc565b60ff16600a610dd991906114f9565b84610de49190611617565b9050610e2a565b8160ff168360ff161115610e26578183610e0591906117bc565b60ff16600a610e1491906114f9565b84610e1f919061140b565b9050610e2a565b8390505b9392505050565b600081600001514311610e79576040517f08c379a0000000000000000000000000000000000000000000000000000000008152600401610e7090611369565b60405180910390fd5b62030ad8600054836000015143610e909190611788565b610e9a919061172e565b610ea49190611475565b9050919050565b600081359050610eba81611918565b92915050565b600081519050610ecf8161192f565b92915050565b600081359050610ee481611946565b92915050565b600081359050610ef98161195d565b92915050565b600081519050610f0e81611974565b92915050565b600081359050610f238161198b565b92915050565b600081519050610f388161198b565b92915050565b600081519050610f4d816119b9565b92915050565b600081519050610f62816119a2565b92915050565b600080600060608486031215610f7d57600080fd5b6000610f8b86828701610eab565b9350506020610f9c86828701610eea565b9250506040610fad86828701610eab565b9150509250925092565b60008060008060808587031215610fcd57600080fd5b6000610fdb87828801610eab565b9450506020610fec87828801610eea565b9350506040610ffd87828801610f14565b925050606061100e87828801610eab565b91505092959194509250565b60006020828403121561102c57600080fd5b600061103a84828501610ec0565b91505092915050565b60006020828403121561105557600080fd5b600061106384828501610ed5565b91505092915050565b6000806040838503121561107f57600080fd5b600061108d85828601610eea565b925050602061109e85828601610eab565b9150509250929050565b6000806000606084860312156110bd57600080fd5b60006110cb86828701610eea565b93505060206110dc86828701610f14565b92505060406110ed86828701610eab565b9150509250925092565b60006020828403121561110957600080fd5b600061111784828501610f29565b91505092915050565b600080600080600060a0868803121561113857600080fd5b600061114688828901610f3e565b955050602061115788828901610eff565b945050604061116888828901610f29565b935050606061117988828901610f29565b925050608061118a88828901610f3e565b9150509295509295909350565b6000602082840312156111a957600080fd5b60006111b784828501610f53565b91505092915050565b6111c9816117f0565b82525050565b6111d881611889565b82525050565b6111e781611832565b82525050565b60006111fa600f836113a4565b91507f616d6f756e7420746f6f206869676800000000000000000000000000000000006000830152602082019050919050565b600061123a6014836113a4565b91507f696e76616c696420626c6f636b206e756d6265720000000000000000000000006000830152602082019050919050565b6112768161185c565b82525050565b600060208201905061129160008301846111c0565b92915050565b60006060820190506112ac60008301866111c0565b6112b960208301856111c0565b6112c6604083018461126d565b949350505050565b60006060820190506112e360008301866111c0565b6112f060208301856111cf565b6112fd604083018461126d565b949350505050565b600060408201905061131a60008301856111c0565b611327602083018461126d565b9392505050565b600060208201905061134360008301846111de565b92915050565b60006020820190508181036000830152611362816111ed565b9050919050565b600060208201905081810360008301526113828161122d565b9050919050565b600060208201905061139e600083018461126d565b92915050565b600082825260208201905092915050565b60006113c08261185c565b91506113cb8361185c565b9250827fffffffffffffffffffffffffffffffffffffffffffffffffffffffffffffffff03821115611400576113ff6118ad565b5b828201905092915050565b600061141682611832565b915061142183611832565b925082611431576114306118dc565b5b600160000383147f80000000000000000000000000000000000000000000000000000000000000008314161561146a576114696118ad565b5b828205905092915050565b60006114808261185c565b915061148b8361185c565b92508261149b5761149a6118dc565b5b828204905092915050565b6000808291508390505b60018511156114f0578086048111156114cc576114cb6118ad565b5b60018516156114db5780820291505b80810290506114e98561190b565b94506114b0565b94509492505050565b60006115048261185c565b915061150f8361185c565b925061153c7fffffffffffffffffffffffffffffffffffffffffffffffffffffffffffffffff8484611544565b905092915050565b6000826115545760019050611610565b816115625760009050611610565b81600181146115785760028114611582576115b1565b6001915050611610565b60ff841115611594576115936118ad565b5b8360020a9150848211156115ab576115aa6118ad565b5b50611610565b5060208310610133831016604e8410600b84101617156115e65782820a9050838111156115e1576115e06118ad565b5b611610565b6115f384848460016114a6565b9250905081840481111561160a576116096118ad565b5b81810290505b9392505050565b600061162282611832565b915061162d83611832565b9250827f7fffffffffffffffffffffffffffffffffffffffffffffffffffffffffffffff048211600084136000841316161561166c5761166b6118ad565b5b817f800000000000000000000000000000000000000000000000000000000000000005831260008412600084131616156116a9576116a86118ad565b5b827f800000000000000000000000000000000000000000000000000000000000000005821260008413600084121616156116e6576116e56118ad565b5b827f7fffffffffffffffffffffffffffffffffffffffffffffffffffffffffffffff0582126000841260008412161615611723576117226118ad565b5b828202905092915050565b60006117398261185c565b91506117448361185c565b9250817fffffffffffffffffffffffffffffffffffffffffffffffffffffffffffffffff048311821515161561177d5761177c6118ad565b5b828202905092915050565b60006117938261185c565b915061179e8361185c565b9250828210156117b1576117b06118ad565b5b828203905092915050565b60006117c782611866565b91506117d283611866565b9250828210156117e5576117e46118ad565b5b828203905092915050565b60006117fb8261183c565b9050919050565b60008115159050919050565b6000611819826117f0565b9050919050565b600061182b826117f0565b9050919050565b6000819050919050565b600073ffffffffffffffffffffffffffffffffffffffff82169050919050565b6000819050919050565b600060ff82169050919050565b600069ffffffffffffffffffff82169050919050565b60006118948261189b565b9050919050565b60006118a68261183c565b9050919050565b7f4e487b7100000000000000000000000000000000000000000000000000000000600052601160045260246000fd5b7f4e487b7100000000000000000000000000000000000000000000000000000000600052601260045260246000fd5b60008160011c9050919050565b611921816117f0565b811461192c57600080fd5b50565b61193881611802565b811461194357600080fd5b50565b61194f8161180e565b811461195a57600080fd5b50565b61196681611820565b811461197157600080fd5b50565b61197d81611832565b811461198857600080fd5b50565b6119948161185c565b811461199f57600080fd5b50565b6119ab81611866565b81146119b657600080fd5b50565b6119c281611873565b81146119cd57600080fd5b5056fea264697066735822122030c12e4658bbab56daa80d6320e5ff3a294df8fcbaecfad89aa1ffcd7d9998cb64736f6c6343000800003360806040523480156200001157600080fd5b506040516200190638038062001906833981810160405281019062000037919062000370565b6040518060400160405280600f81526020017f4672616e6365426f72674d6f6e657900000000000000000000000000000000008152506040518060400160405280600381526020017f46424d00000000000000000000000000000000000000000000000000000000008152508160039080519060200190620000bb929190620002a9565b508060049080519060200190620000d4929190620002a9565b5050506200011633620000ec6200011d60201b60201c565b60ff16600a84620000fe91906200049c565b6200010a91906200049c565b6200012660201b60201c565b50620005b5565b60006012905090565b600073ffffffffffffffffffffffffffffffffffffffff168273ffffffffffffffffffffffffffffffffffffffff16141562000199576040517f08c379a00000000000000000000000000000000000000000000000000000000081526004016200019090620003ef565b60405180910390fd5b620001ad600083836200029f60201b60201c565b8060026000828254620001c191906200043f565b92505081905550806000808473ffffffffffffffffffffffffffffffffffffffff1673ffffffffffffffffffffffffffffffffffffffff16815260200190815260200160002060008282546200021891906200043f565b925050819055508173ffffffffffffffffffffffffffffffffffffffff16600073ffffffffffffffffffffffffffffffffffffffff167fddf252ad1be2c89b69c2b068fc378daa952ba7f163c4a11628f55a4df523b3ef836040516200027f919062000411565b60405180910390a36200029b60008383620002a460201b60201c565b5050565b505050565b505050565b828054620002b79062000507565b90600052602060002090601f016020900481019282620002db576000855562000327565b82601f10620002f657805160ff191683800117855562000327565b8280016001018555821562000327579182015b828111156200032657825182559160200191906001019062000309565b5b5090506200033691906200033a565b5090565b5b80821115620003555760008160009055506001016200033b565b5090565b6000815190506200036a816200059b565b92915050565b6000602082840312156200038357600080fd5b6000620003938482850162000359565b91505092915050565b6000620003ab601f836200042e565b91507f45524332303a206d696e7420746f20746865207a65726f2061646472657373006000830152602082019050919050565b620003e981620004fd565b82525050565b600060208201905081810360008301526200040a816200039c565b9050919050565b6000602082019050620004286000830184620003de565b92915050565b600082825260208201905092915050565b60006200044c82620004fd565b91506200045983620004fd565b9250827fffffffffffffffffffffffffffffffffffffffffffffffffffffffffffffffff038211156200049157620004906200053d565b5b828201905092915050565b6000620004a982620004fd565b9150620004b683620004fd565b9250817fffffffffffffffffffffffffffffffffffffffffffffffffffffffffffffffff0483118215151615620004f257620004f16200053d565b5b828202905092915050565b6000819050919050565b600060028204905060018216806200052057607f821691505b602082108114156200053757620005366200056c565b5b50919050565b7f4e487b7100000000000000000000000000000000000000000000000000000000600052601160045260246000fd5b7f4e487b7100000000000000000000000000000000000000000000000000000000600052602260045260246000fd5b620005a681620004fd565b8114620005b257600080fd5b50565b61134180620005c56000396000f3fe608060405234801561001057600080fd5b50600436106100a95760003560e01c80633950935111610071578063395093511461016857806370a082311461019857806395d89b41146101c8578063a457c2d7146101e6578063a9059cbb14610216578063dd62ed3e14610246576100a9565b806306fdde03146100ae578063095ea7b3146100cc57806318160ddd146100fc57806323b872dd1461011a578063313ce5671461014a575b600080fd5b6100b6610276565b6040516100c3919061100a565b60405180910390f35b6100e660048036038101906100e19190610c83565b610308565b6040516100f39190610fef565b60405180910390f35b610104610326565b604051610111919061110c565b60405180910390f35b610134600480360381019061012f9190610c34565b610330565b6040516101419190610fef565b60405180910390f35b610152610428565b60405161015f9190611127565b60405180910390f35b610182600480360381019061017d9190610c83565b610431565b60405161018f9190610fef565b60405180910390f35b6101b260048036038101906101ad9190610bcf565b6104dd565b6040516101bf919061110c565b60405180910390f35b6101d0610525565b6040516101dd919061100a565b60405180910390f35b61020060048036038101906101fb9190610c83565b6105b7565b60405161020d9190610fef565b60405180910390f35b610230600480360381019061022b9190610c83565b6106a2565b60405161023d9190610fef565b60405180910390f35b610260600480360381019061025b9190610bf8565b6106c0565b60405161026d919061110c565b60405180910390f35b6060600380546102859061123c565b80601f01602080910402602001604051908101604052809291908181526020018280546102b19061123c565b80156102fe5780601f106102d3576101008083540402835291602001916102fe565b820191906000526020600020905b8154815290600101906020018083116102e157829003601f168201915b5050505050905090565b600061031c610315610747565b848461074f565b6001905092915050565b6000600254905090565b600061033d84848461091a565b6000600160008673ffffffffffffffffffffffffffffffffffffffff1673ffffffffffffffffffffffffffffffffffffffff1681526020019081526020016000206000610388610747565b73ffffffffffffffffffffffffffffffffffffffff1673ffffffffffffffffffffffffffffffffffffffff16815260200190815260200160002054905082811015610408576040517f08c379a00000000000000000000000000000000000000000000000000000000081526004016103ff9061108c565b60405180910390fd5b61041c85610414610747565b85840361074f565b60019150509392505050565b60006012905090565b60006104d361043e610747565b84846001600061044c610747565b73ffffffffffffffffffffffffffffffffffffffff1673ffffffffffffffffffffffffffffffffffffffff16815260200190815260200160002060008873ffffffffffffffffffffffffffffffffffffffff1673ffffffffffffffffffffffffffffffffffffffff168152602001908152602001600020546104ce919061115e565b61074f565b6001905092915050565b60008060008373ffffffffffffffffffffffffffffffffffffffff1673ffffffffffffffffffffffffffffffffffffffff168152602001908152602001600020549050919050565b6060600480546105349061123c565b80601f01602080910402602001604051908101604052809291908181526020018280546105609061123c565b80156105ad5780601f10610582576101008083540402835291602001916105ad565b820191906000526020600020905b81548152906001019060200180831161059057829003601f168201915b5050505050905090565b600080600160006105c6610747565b73ffffffffffffffffffffffffffffffffffffffff1673ffffffffffffffffffffffffffffffffffffffff16815260200190815260200160002060008573ffffffffffffffffffffffffffffffffffffffff1673ffffffffffffffffffffffffffffffffffffffff16815260200190815260200160002054905082811015610683576040517f08c379a000000000000000000000000000000000000000000000000000000000815260040161067a906110ec565b60405180910390fd5b61069761068e610747565b8585840361074f565b600191505092915050565b60006106b66106af610747565b848461091a565b6001905092915050565b6000600160008473ffffffffffffffffffffffffffffffffffffffff1673ffffffffffffffffffffffffffffffffffffffff16815260200190815260200160002060008373ffffffffffffffffffffffffffffffffffffffff1673ffffffffffffffffffffffffffffffffffffffff16815260200190815260200160002054905092915050565b600033905090565b600073ffffffffffffffffffffffffffffffffffffffff168373ffffffffffffffffffffffffffffffffffffffff1614156107bf576040517f08c379a00000000000000000000000000000000000000000000000000000000081526004016107b6906110cc565b60405180910390fd5b600073ffffffffffffffffffffffffffffffffffffffff168273ffffffffffffffffffffffffffffffffffffffff16141561082f576040517f08c379a00000000000000000000000000000000000000000000000000000000081526004016108269061104c565b60405180910390fd5b80600160008573ffffffffffffffffffffffffffffffffffffffff1673ffffffffffffffffffffffffffffffffffffffff16815260200190815260200160002060008473ffffffffffffffffffffffffffffffffffffffff1673ffffffffffffffffffffffffffffffffffffffff168152602001908152602001600020819055508173ffffffffffffffffffffffffffffffffffffffff168373ffffffffffffffffffffffffffffffffffffffff167f8c5be1e5ebec7d5bd14f71427d1e84f3dd0314c0f7b2291e5b200ac8c7c3b9258360405161090d919061110c565b60405180910390a3505050565b600073ffffffffffffffffffffffffffffffffffffffff168373ffffffffffffffffffffffffffffffffffffffff16141561098a576040517f08c379a0000000000000000000000000000000000000000000000000000000008152600401610981906110ac565b60405180910390fd5b600073ffffffffffffffffffffffffffffffffffffffff168273ffffffffffffffffffffffffffffffffffffffff1614156109fa576040517f08c379a00000000000000000000000000000000000000000000000000000000081526004016109f19061102c565b60405180910390fd5b610a05838383610b9b565b60008060008573ffffffffffffffffffffffffffffffffffffffff1673ffffffffffffffffffffffffffffffffffffffff16815260200190815260200160002054905081811015610a8b576040517f08c379a0000000000000000000000000000000000000000000000000000000008152600401610a829061106c565b60405180910390fd5b8181036000808673ffffffffffffffffffffffffffffffffffffffff1673ffffffffffffffffffffffffffffffffffffffff16815260200190815260200160002081905550816000808573ffffffffffffffffffffffffffffffffffffffff1673ffffffffffffffffffffffffffffffffffffffff1681526020019081526020016000206000828254610b1e919061115e565b925050819055508273ffffffffffffffffffffffffffffffffffffffff168473ffffffffffffffffffffffffffffffffffffffff167fddf252ad1be2c89b69c2b068fc378daa952ba7f163c4a11628f55a4df523b3ef84604051610b82919061110c565b60405180910390a3610b95848484610ba0565b50505050565b505050565b505050565b600081359050610bb4816112dd565b92915050565b600081359050610bc9816112f4565b92915050565b600060208284031215610be157600080fd5b6000610bef84828501610ba5565b91505092915050565b60008060408385031215610c0b57600080fd5b6000610c1985828601610ba5565b9250506020610c2a85828601610ba5565b9150509250929050565b600080600060608486031215610c4957600080fd5b6000610c5786828701610ba5565b9350506020610c6886828701610ba5565b9250506040610c7986828701610bba565b9150509250925092565b60008060408385031215610c9657600080fd5b6000610ca485828601610ba5565b9250506020610cb585828601610bba565b9150509250929050565b610cc8816111c6565b82525050565b6000610cd982611142565b610ce3818561114d565b9350610cf3818560208601611209565b610cfc816112cc565b840191505092915050565b6000610d1460238361114d565b91507f45524332303a207472616e7366657220746f20746865207a65726f206164647260008301527f65737300000000000000000000000000000000000000000000000000000000006020830152604082019050919050565b6000610d7a60228361114d565b91507f45524332303a20617070726f766520746f20746865207a65726f20616464726560008301527f73730000000000000000000000000000000000000000000000000000000000006020830152604082019050919050565b6000610de060268361114d565b91507f45524332303a207472616e7366657220616d6f756e742065786365656473206260008301527f616c616e636500000000000000000000000000000000000000000000000000006020830152604082019050919050565b6000610e4660288361114d565b91507f45524332303a207472616e7366657220616d6f756e742065786365656473206160008301527f6c6c6f77616e63650000000000000000000000000000000000000000000000006020830152604082019050919050565b6000610eac60258361114d565b91507f45524332303a207472616e736665722066726f6d20746865207a65726f20616460008301527f64726573730000000000000000000000000000000000000000000000000000006020830152604082019050919050565b6000610f1260248361114d565b91507f45524332303a20617070726f76652066726f6d20746865207a65726f2061646460008301527f72657373000000000000000000000000000000000000000000000000000000006020830152604082019050919050565b6000610f7860258361114d565b91507f45524332303a2064656372656173656420616c6c6f77616e63652062656c6f7760008301527f207a65726f0000000000000000000000000000000000000000000000000000006020830152604082019050919050565b610fda816111f2565b82525050565b610fe9816111fc565b82525050565b60006020820190506110046000830184610cbf565b92915050565b600060208201905081810360008301526110248184610cce565b905092915050565b6000602082019050818103600083015261104581610d07565b9050919050565b6000602082019050818103600083015261106581610d6d565b9050919050565b6000602082019050818103600083015261108581610dd3565b9050919050565b600060208201905081810360008301526110a581610e39565b9050919050565b600060208201905081810360008301526110c581610e9f565b9050919050565b600060208201905081810360008301526110e581610f05565b9050919050565b6000602082019050818103600083015261110581610f6b565b9050919050565b60006020820190506111216000830184610fd1565b92915050565b600060208201905061113c6000830184610fe0565b92915050565b600081519050919050565b600082825260208201905092915050565b6000611169826111f2565b9150611174836111f2565b9250827fffffffffffffffffffffffffffffffffffffffffffffffffffffffffffffffff038211156111a9576111a861126e565b5b828201905092915050565b60006111bf826111d2565b9050919050565b60008115159050919050565b600073ffffffffffffffffffffffffffffffffffffffff82169050919050565b6000819050919050565b600060ff82169050919050565b60005b8381101561122757808201518184015260208101905061120c565b83811115611236576000848401525b50505050565b6000600282049050600182168061125457607f821691505b602082108114156112685761126761129d565b5b50919050565b7f4e487b7100000000000000000000000000000000000000000000000000000000600052601160045260246000fd5b7f4e487b7100000000000000000000000000000000000000000000000000000000600052602260045260246000fd5b6000601f19601f8301169050919050565b6112e6816111b4565b81146112f157600080fd5b50565b6112fd816111f2565b811461130857600080fd5b5056fea2646970667358221220dc65a6da80e464200c4371dc44879fdb55f0fcde00581f28e15ef03e881f714b64736f6c63430008000033",
  "immutableReferences": {},
  "source": "// SPDX-License-Identifier:MIT\n\npragma solidity 0.8.0;\n\nimport \"@openzeppelin/contracts/token/ERC20/ERC20.sol\";\nimport \"@chainlink/contracts/src/v0.8/interfaces/AggregatorV3Interface.sol\";\nimport \"./FBMoney.sol\";\n\nstruct Stake {\n\tuint256 dateOfValue;\n\tuint256 amount;\n}\nstruct Bonus {\n\tuint256 amount;\n\tuint256 dateOfValue;\n}\n\ncontract FBStaker {\n\tuint256 _Rate = 1;\n\tmapping(address => mapping(address => Stake)) stakeList; // Liste des stakes en cours\n\tmapping(address => Bonus) bonusList; // List des bonus par utilisateur\n\tmapping(address => uint256) tokenPool; // List des tokens rcuprs\n\n\tuint8 _Decimals; // Decimals of our own Mondey\n\tFBMoney private _FrenchBorgTokenProvider;\n\n\tmodifier notNull256(uint256 v) {\n\t\trequire(v != 0);\n\t\t_;\n\t}\n\n\tevent BomusRetrieved(address adr, uint256 amount);\n\tevent TokenStaked(address adr, IERC20 Tkn, uint256 amount);\n\tevent TokenUnstaked(address adr, IERC20 Tkn, uint256 amount);\n\n\tconstructor() {\n\t\t_FrenchBorgTokenProvider = new FBMoney(1000); // Our home-made money\n\t\t_Decimals = _FrenchBorgTokenProvider.decimals(); // saved to avoid calls\n\t}\n\n\t/**\n\t * @dev Returns the balance of our home made token for bonuses\n\t */\n\tfunction getMoneyBalance() external view returns (uint256) {\n\t\treturn _FrenchBorgTokenProvider.balanceOf(msg.sender);\n\t}\n\n\t/**\n\t * @dev debugging purpose: Returns the amount of money staked per token\n\t */\n\tfunction getTokenStakedBalance(ERC20 Token)\n\t\texternal\n\t\tview\n\t\treturns (uint256)\n\t{\n\t\treturn stakeList[msg.sender][address(Token)].amount;\n\t}\n\n\t/**\n\t * @dev Make money compatibles if they don't have the same Decimals\n\t */\n\tfunction scalePrice(\n\t\tint256 _price,\n\t\tuint8 _priceDecimals,\n\t\tuint8 _decimals\n\t) internal pure returns (int256) {\n\t\t// provient de https://docs.chain.link/docs/get-the-latest-price/\n\t\t// permet d'adapter les prix en fctn des decimales de chaque monnaie\n\t\tif (_priceDecimals < _decimals) {\n\t\t\treturn _price * int256(10**uint256(_decimals - _priceDecimals));\n\t\t} else if (_priceDecimals > _decimals) {\n\t\t\treturn _price / int256(10**uint256(_priceDecimals - _decimals));\n\t\t}\n\t\treturn _price;\n\t}\n\n\t/**\n\t * @dev Retourne le ratio temporel en utilisant le delta des blocks\n\t * @param Stk Current stake for customers\n\t */\n\tfunction getRate(Stake memory Stk) internal view returns (uint256) {\n\t\trequire(block.number > Stk.dateOfValue, \"invalid block number\");\n\t\t// _Rate vaut 1, parit avec ethereum\n\t\t// 199385 = 30j * 24h * 60mn * 60s / 13blk\n\t\t// return Delta Block * Taux par mois / BlockParMois\n\t\treturn\n\t\t\tuint256(\n\t\t\t\t((uint256(block.number - Stk.dateOfValue) * _Rate) /\n\t\t\t\t\tuint256(199384))\n\t\t\t);\n\t}\n\n\t/**\n\t * @dev Given a stake, returns the value of potential bonuses\n\t * @param Stk Current stake for customers\n\t * @param Aggregator used for getting Token value\n\t */\n\tfunction computeBonus(Stake memory Stk, address Aggregator)\n\t\tinternal\n\t\tview\n\t\treturns (int256)\n\t{\n\t\t// On rcupere le prix en ETH\n\t\t(, int256 ratio, , , ) = AggregatorV3Interface(Aggregator)\n\t\t\t.latestRoundData();\n\t\tuint8 tokenDecimals = AggregatorV3Interface(Aggregator).decimals();\n\t\t// On remet a l'echelle en fonction des decimales de chaque monnaie si besoin\n\t\tif (tokenDecimals != _Decimals)\n\t\t\treturn\n\t\t\t\tint256(Stk.amount * getRate(Stk)) *\n\t\t\t\tratio *\n\t\t\t\tint256(scalePrice(ratio, tokenDecimals, _Decimals));\n\t\treturn int256(Stk.amount * getRate(Stk)) * ratio;\n\t}\n\n\t/**\n\t * @dev Querying current status of staking - external funk\n\t * @param Token Token staked by customers\n\t * @param Aggregator Provided by JS for evaluating values\n\t */\n\tfunction evaluateBonus(IERC20 Token, address Aggregator)\n\t\texternal\n\t\tview\n\t\treturns (int256)\n\t{\n\t\tStake memory Stk = stakeList[msg.sender][address(Token)];\n\t\treturn computeBonus(Stk, Aggregator);\n\t}\n\n\t/**\n\t * @dev Internal function for evaluating and aggregating Bonuses\n\t * @param customer for which customer ?\n\t * @param Stk Current stake for customers\n\t * @param Aggregator used for getting Token value\n\t */\n\tfunction aggregateBonus(\n\t\taddress customer,\n\t\taddress Aggregator,\n\t\tStake memory Stk\n\t) internal {\n\t\t// evaluate new potential bonus\n\t\tint256 bonus = computeBonus(Stk, Aggregator);\n\n\t\t// Remember we are retrieving, for next evaluation\n\t\tbonusList[customer].dateOfValue = block.number;\n\t\tStk.dateOfValue = block.number;\n\n\t\tif (bonus > 0) bonusList[customer].amount += uint256(bonus);\n\t}\n\n\tfunction retrieveBonus(\n\t\taddress customer,\n\t\tIERC20 Token,\n\t\taddress Aggregator\n\t) public {\n\t\tStake memory Stk = stakeList[customer][address(Token)];\n\t\t// Avant de rcuprer le bonus, on le recalcul\n\t\taggregateBonus(customer, Aggregator, Stk);\n\t\tuint256 bonus = bonusList[customer].amount;\n\n\t\t// Transfer Bonuses to customer\n\t\tif (bonus != 0) {\n\t\t\tbonusList[customer].amount += bonus;\n\t\t\temit BomusRetrieved(customer, bonus);\n\t\t\t_FrenchBorgTokenProvider.transferFrom(msg.sender, customer, bonus);\n\t\t}\n\t}\n\n\t/**\n\t * @dev Stake swap some tokens for our money token\n\t * @param Token customer's Token\n\t * @param amount amount of customer's token to Stake\n\t * @param Aggregator Provided by JS for the correct PAIR\n\t */\n\tfunction StakeTokens(\n\t\tIERC20 Token,\n\t\tuint256 amount,\n\t\taddress Aggregator\n\t) external notNull256(amount) {\n\t\tassert(address(Token) != address(0));\n\t\tassert(address(Aggregator) != address(0));\n\t\t// Trouve la reference du client\n\t\tStake memory Stk = stakeList[msg.sender][address(Token)];\n\n\t\t// On mmorise la quantit par token, pour utilisation eventuelle\n\t\ttokenPool[address(Token)] += amount;\n\t\temit TokenStaked(msg.sender, Token, amount);\n\n\t\t// Compute and transfer Bonus\n\t\t//Le stake n'est peut etre pas vide, aussi on doit d'abord mettre a jour les bonuses\n\t\taggregateBonus(msg.sender, Aggregator, Stk);\n\t\t// Met  jour maintenant, apres avoir aggrg, la balance de tokens\n\t\tstakeList[msg.sender][address(Token)].amount += amount;\n\t\t// Transfer the tokens, supposing the approve has been done\n\t\tToken.transferFrom(msg.sender, address(this), amount);\n\t}\n\n\t/**\n\t * @dev Unstake the staked tokens\n\t * @param Customer Customer's address\n\t * @param Token customer's Token\n\t * @param amount amount of customer's token to Stake\n\t * @param Aggregator Provided by JS for the correct PAIR\n\t */\n\tfunction UnstakeTokens(\n\t\taddress Customer,\n\t\tIERC20 Token,\n\t\tuint256 amount,\n\t\taddress Aggregator\n\t) external notNull256(amount) {\n\t\trequire(address(Token) != address(0));\n\t\trequire(address(Aggregator) != address(0));\n\t\trequire(address(Customer) != address(0));\n\n\t\t// Trouve la reference du client\n\t\tStake memory Stk = stakeList[Customer][address(Token)];\n\t\t// On essai de retirer de trop ?\n\t\trequire(Stk.amount >= amount, \"amount too high\");\n\t\t// Compute and aggregate Bonus\n\t\taggregateBonus(Customer, Aggregator, Stk);\n\n\t\tStk.amount -= amount;\n\t\temit TokenUnstaked(Customer, Token, amount);\n\n\t\tToken.transfer(Customer, amount);\n\t}\n}\n",
  "sourcePath": "/home/pec/Formation/Ethereum/Staking/contracts/FBStaker.sol",
  "compiler": {
    "name": "solc",
    "version": "0.8.0+commit.c7dfd78e.Emscripten.clang"
  },
  "schemaVersion": "3.4.3",
  "updatedAt": "2021-11-07T13:59:38.391Z",
  "devdoc": {
    "kind": "dev",
    "methods": {
      "StakeTokens(address,uint256,address)": {
        "details": "Stake swap some tokens for our money token",
        "params": {
          "Aggregator": "Provided by JS for the correct PAIR",
          "Token": "customer's Token",
          "amount": "amount of customer's token to Stake"
        }
      },
      "UnstakeTokens(address,address,uint256,address)": {
        "details": "Unstake the staked tokens",
        "params": {
          "Aggregator": "Provided by JS for the correct PAIR",
          "Customer": "Customer's address",
          "Token": "customer's Token",
          "amount": "amount of customer's token to Stake"
        }
      },
      "evaluateBonus(address,address)": {
        "details": "Querying current status of staking - external funk",
        "params": {
          "Aggregator": "Provided by JS for evaluating values",
          "Token": "Token staked by customers"
        }
      },
      "getMoneyBalance()": {
        "details": "Returns the balance of our home made token for bonuses"
      },
      "getTokenStakedBalance(address)": {
        "details": "debugging purpose: Returns the amount of money staked per token"
      }
    },
    "version": 1
  },
  "userdoc": {
    "kind": "user",
    "methods": {},
    "version": 1
  }
}