{
  "contractName": "FBStaker",
  "abi": [
    {
      "inputs": [],
      "stateMutability": "nonpayable",
      "type": "constructor"
    },
    {
      "inputs": [],
      "name": "getMoneyBalance",
      "outputs": [
        {
          "internalType": "uint256",
          "name": "",
          "type": "uint256"
        }
      ],
      "stateMutability": "view",
      "type": "function"
    },
    {
      "inputs": [
        {
          "internalType": "contract ERC20",
          "name": "Token",
          "type": "address"
        }
      ],
      "name": "getTokenStakedBalance",
      "outputs": [
        {
          "internalType": "uint256",
          "name": "",
          "type": "uint256"
        }
      ],
      "stateMutability": "view",
      "type": "function"
    },
    {
      "inputs": [
        {
          "internalType": "contract IERC20",
          "name": "Token",
          "type": "address"
        },
        {
          "internalType": "address",
          "name": "Aggregator",
          "type": "address"
        }
      ],
      "name": "evaluateBonus",
      "outputs": [
        {
          "internalType": "int256",
          "name": "",
          "type": "int256"
        }
      ],
      "stateMutability": "view",
      "type": "function"
    },
    {
      "inputs": [
        {
          "internalType": "contract IERC20",
          "name": "Token",
          "type": "address"
        },
        {
          "internalType": "uint256",
          "name": "amount",
          "type": "uint256"
        },
        {
          "internalType": "address",
          "name": "Aggregator",
          "type": "address"
        }
      ],
      "name": "StakeTokens",
      "outputs": [],
      "stateMutability": "nonpayable",
      "type": "function"
    },
    {
      "inputs": [
        {
          "internalType": "contract IERC20",
          "name": "Token",
          "type": "address"
        },
        {
          "internalType": "uint256",
          "name": "amount",
          "type": "uint256"
        },
        {
          "internalType": "address",
          "name": "Aggregator",
          "type": "address"
        }
      ],
      "name": "UnstakeTokens",
      "outputs": [],
      "stateMutability": "nonpayable",
      "type": "function"
    }
  ],
  "bytecode": "0x6080604052600180553480156200001557600080fd5b506103e8604051620000279062000152565b620000339190620001b4565b604051809103906000f08015801562000050573d6000803e3d6000fd5b506000806101000a81548173ffffffffffffffffffffffffffffffffffffffff021916908373ffffffffffffffffffffffffffffffffffffffff16021790555060008054906101000a900473ffffffffffffffffffffffffffffffffffffffff1673ffffffffffffffffffffffffffffffffffffffff1663313ce5676040518163ffffffff1660e01b815260040160206040518083038186803b158015620000f757600080fd5b505afa1580156200010c573d6000803e3d6000fd5b505050506040513d601f19601f8201168201806040525081019062000132919062000177565b600260006101000a81548160ff021916908360ff16021790555062000216565b61190680620018ac83390190565b6000815190506200017181620001fc565b92915050565b6000602082840312156200018a57600080fd5b60006200019a8482850162000160565b91505092915050565b620001ae81620001e8565b82525050565b6000602082019050620001cb6000830184620001a3565b92915050565b6000819050919050565b600060ff82169050919050565b6000620001f582620001d1565b9050919050565b6200020781620001db565b81146200021357600080fd5b50565b61168680620002266000396000f3fe608060405234801561001057600080fd5b50600436106100575760003560e01c8063354435711461005c578063b80f5f8914610078578063dbc9eda3146100a8578063e2f59ec9146100d8578063ef9c337d146100f6575b600080fd5b61007660048036038101906100719190610d92565b610112565b005b610092600480360381019061008d9190610d2d565b610415565b60405161009f919061102d565b60405180910390f35b6100c260048036038101906100bd9190610d56565b61049e565b6040516100cf9190610fd2565b60405180910390f35b6100e0610551565b6040516100ed919061102d565b60405180910390f35b610110600480360381019061010b9190610d92565b610602565b005b81600081141561012157600080fd5b600073ffffffffffffffffffffffffffffffffffffffff168473ffffffffffffffffffffffffffffffffffffffff161415610185577f4e487b7100000000000000000000000000000000000000000000000000000000600052600160045260246000fd5b600073ffffffffffffffffffffffffffffffffffffffff168273ffffffffffffffffffffffffffffffffffffffff1614156101e9577f4e487b7100000000000000000000000000000000000000000000000000000000600052600160045260246000fd5b6000600360003373ffffffffffffffffffffffffffffffffffffffff1673ffffffffffffffffffffffffffffffffffffffff16815260200190815260200160002060008673ffffffffffffffffffffffffffffffffffffffff1673ffffffffffffffffffffffffffffffffffffffff16815260200190815260200160002060405180604001604052908160008201548152602001600182015481525050905083600560008773ffffffffffffffffffffffffffffffffffffffff1673ffffffffffffffffffffffffffffffffffffffff16815260200190815260200160002060008282546102d79190611059565b925050819055506102e88382610825565b83600360003373ffffffffffffffffffffffffffffffffffffffff1673ffffffffffffffffffffffffffffffffffffffff16815260200190815260200160002060008773ffffffffffffffffffffffffffffffffffffffff1673ffffffffffffffffffffffffffffffffffffffff16815260200190815260200160002060010160008282546103779190611059565b925050819055508473ffffffffffffffffffffffffffffffffffffffff166323b872dd3330876040518463ffffffff1660e01b81526004016103bb93929190610f72565b602060405180830381600087803b1580156103d557600080fd5b505af11580156103e9573d6000803e3d6000fd5b505050506040513d601f19601f8201168201806040525081019061040d9190610d04565b505050505050565b6000600360003373ffffffffffffffffffffffffffffffffffffffff1673ffffffffffffffffffffffffffffffffffffffff16815260200190815260200160002060008373ffffffffffffffffffffffffffffffffffffffff1673ffffffffffffffffffffffffffffffffffffffff168152602001908152602001600020600101549050919050565b600080600360003373ffffffffffffffffffffffffffffffffffffffff1673ffffffffffffffffffffffffffffffffffffffff16815260200190815260200160002060008573ffffffffffffffffffffffffffffffffffffffff1673ffffffffffffffffffffffffffffffffffffffff16815260200190815260200160002060405180604001604052908160008201548152602001600182015481525050905061054881846109a7565b91505092915050565b60008060009054906101000a900473ffffffffffffffffffffffffffffffffffffffff1673ffffffffffffffffffffffffffffffffffffffff166370a08231336040518263ffffffff1660e01b81526004016105ad9190610f57565b60206040518083038186803b1580156105c557600080fd5b505afa1580156105d9573d6000803e3d6000fd5b505050506040513d601f19601f820116820180604052508101906105fd9190610de1565b905090565b81600081141561061157600080fd5b600073ffffffffffffffffffffffffffffffffffffffff168473ffffffffffffffffffffffffffffffffffffffff16141561064b57600080fd5b600073ffffffffffffffffffffffffffffffffffffffff168273ffffffffffffffffffffffffffffffffffffffff16141561068557600080fd5b6000600360003373ffffffffffffffffffffffffffffffffffffffff1673ffffffffffffffffffffffffffffffffffffffff16815260200190815260200160002060008673ffffffffffffffffffffffffffffffffffffffff1673ffffffffffffffffffffffffffffffffffffffff168152602001908152602001600020604051806040016040529081600082015481526020016001820154815250509050838160200151101561076b576040517f08c379a000000000000000000000000000000000000000000000000000000000815260040161076290610fed565b60405180910390fd5b6107758382610825565b8381602001818151610787919061142c565b915081815250508473ffffffffffffffffffffffffffffffffffffffff166323b872dd3033876040518463ffffffff1660e01b81526004016107cb93929190610f72565b602060405180830381600087803b1580156107e557600080fd5b505af11580156107f9573d6000803e3d6000fd5b505050506040513d601f19601f8201168201806040525081019061081d9190610d04565b505050505050565b600061083182846109a7565b9050600081121561084157600090505b43600460003373ffffffffffffffffffffffffffffffffffffffff1673ffffffffffffffffffffffffffffffffffffffff1681526020019081526020016000206001018190555043826000018181525050600081146109a25780600460003373ffffffffffffffffffffffffffffffffffffffff1673ffffffffffffffffffffffffffffffffffffffff16815260200190815260200160002060000160008282546108ec9190611059565b9250508190555060008054906101000a900473ffffffffffffffffffffffffffffffffffffffff1673ffffffffffffffffffffffffffffffffffffffff1663a9059cbb33836040518363ffffffff1660e01b815260040161094e929190610fa9565b602060405180830381600087803b15801561096857600080fd5b505af115801561097c573d6000803e3d6000fd5b505050506040513d601f19601f820116820180604052508101906109a09190610d04565b505b505050565b6000808273ffffffffffffffffffffffffffffffffffffffff1663feaf968c6040518163ffffffff1660e01b815260040160a06040518083038186803b1580156109f057600080fd5b505afa158015610a04573d6000803e3d6000fd5b505050506040513d601f19601f82011682018060405250810190610a289190610e0a565b50505091505060008373ffffffffffffffffffffffffffffffffffffffff1663313ce5676040518163ffffffff1660e01b815260040160206040518083038186803b158015610a7657600080fd5b505afa158015610a8a573d6000803e3d6000fd5b505050506040513d601f19601f82011682018060405250810190610aae9190610e81565b9050600260009054906101000a900460ff1660ff168160ff1614610b1c57610ae68282600260009054906101000a900460ff16610b4a565b82610af087610bcd565b8760200151610aff91906113d2565b610b0991906112bb565b610b1391906112bb565b92505050610b44565b81610b2686610bcd565b8660200151610b3591906113d2565b610b3f91906112bb565b925050505b92915050565b60008160ff168360ff161015610b87578282610b669190611460565b60ff16600a610b75919061119d565b84610b8091906112bb565b9050610bc6565b8160ff168360ff161115610bc2578183610ba19190611460565b60ff16600a610bb0919061119d565b84610bbb91906110af565b9050610bc6565b8390505b9392505050565b600081600001514311610c15576040517f08c379a0000000000000000000000000000000000000000000000000000000008152600401610c0c9061100d565b60405180910390fd5b62025396600154836000015143610c2c919061142c565b610c3691906113d2565b610c409190611119565b9050919050565b600081359050610c5681611598565b92915050565b600081519050610c6b816115af565b92915050565b600081359050610c80816115c6565b92915050565b600081359050610c95816115dd565b92915050565b600081519050610caa816115f4565b92915050565b600081359050610cbf8161160b565b92915050565b600081519050610cd48161160b565b92915050565b600081519050610ce981611639565b92915050565b600081519050610cfe81611622565b92915050565b600060208284031215610d1657600080fd5b6000610d2484828501610c5c565b91505092915050565b600060208284031215610d3f57600080fd5b6000610d4d84828501610c71565b91505092915050565b60008060408385031215610d6957600080fd5b6000610d7785828601610c86565b9250506020610d8885828601610c47565b9150509250929050565b600080600060608486031215610da757600080fd5b6000610db586828701610c86565b9350506020610dc686828701610cb0565b9250506040610dd786828701610c47565b9150509250925092565b600060208284031215610df357600080fd5b6000610e0184828501610cc5565b91505092915050565b600080600080600060a08688031215610e2257600080fd5b6000610e3088828901610cda565b9550506020610e4188828901610c9b565b9450506040610e5288828901610cc5565b9350506060610e6388828901610cc5565b9250506080610e7488828901610cda565b9150509295509295909350565b600060208284031215610e9357600080fd5b6000610ea184828501610cef565b91505092915050565b610eb381611494565b82525050565b610ec2816114d6565b82525050565b6000610ed5600f83611048565b91507f616d6f756e7420746f6f206869676800000000000000000000000000000000006000830152602082019050919050565b6000610f15601483611048565b91507f696e76616c696420626c6f636b206e756d6265720000000000000000000000006000830152602082019050919050565b610f5181611500565b82525050565b6000602082019050610f6c6000830184610eaa565b92915050565b6000606082019050610f876000830186610eaa565b610f946020830185610eaa565b610fa16040830184610f48565b949350505050565b6000604082019050610fbe6000830185610eaa565b610fcb6020830184610f48565b9392505050565b6000602082019050610fe76000830184610eb9565b92915050565b6000602082019050818103600083015261100681610ec8565b9050919050565b6000602082019050818103600083015261102681610f08565b9050919050565b60006020820190506110426000830184610f48565b92915050565b600082825260208201905092915050565b600061106482611500565b915061106f83611500565b9250827fffffffffffffffffffffffffffffffffffffffffffffffffffffffffffffffff038211156110a4576110a361152d565b5b828201905092915050565b60006110ba826114d6565b91506110c5836114d6565b9250826110d5576110d461155c565b5b600160000383147f80000000000000000000000000000000000000000000000000000000000000008314161561110e5761110d61152d565b5b828205905092915050565b600061112482611500565b915061112f83611500565b92508261113f5761113e61155c565b5b828204905092915050565b6000808291508390505b6001851115611194578086048111156111705761116f61152d565b5b600185161561117f5780820291505b808102905061118d8561158b565b9450611154565b94509492505050565b60006111a882611500565b91506111b383611500565b92506111e07fffffffffffffffffffffffffffffffffffffffffffffffffffffffffffffffff84846111e8565b905092915050565b6000826111f857600190506112b4565b8161120657600090506112b4565b816001811461121c576002811461122657611255565b60019150506112b4565b60ff8411156112385761123761152d565b5b8360020a91508482111561124f5761124e61152d565b5b506112b4565b5060208310610133831016604e8410600b841016171561128a5782820a9050838111156112855761128461152d565b5b6112b4565b611297848484600161114a565b925090508184048111156112ae576112ad61152d565b5b81810290505b9392505050565b60006112c6826114d6565b91506112d1836114d6565b9250827f7fffffffffffffffffffffffffffffffffffffffffffffffffffffffffffffff04821160008413600084131616156113105761130f61152d565b5b817f8000000000000000000000000000000000000000000000000000000000000000058312600084126000841316161561134d5761134c61152d565b5b827f8000000000000000000000000000000000000000000000000000000000000000058212600084136000841216161561138a5761138961152d565b5b827f7fffffffffffffffffffffffffffffffffffffffffffffffffffffffffffffff05821260008412600084121616156113c7576113c661152d565b5b828202905092915050565b60006113dd82611500565b91506113e883611500565b9250817fffffffffffffffffffffffffffffffffffffffffffffffffffffffffffffffff04831182151516156114215761142061152d565b5b828202905092915050565b600061143782611500565b915061144283611500565b9250828210156114555761145461152d565b5b828203905092915050565b600061146b8261150a565b91506114768361150a565b9250828210156114895761148861152d565b5b828203905092915050565b600061149f826114e0565b9050919050565b60008115159050919050565b60006114bd82611494565b9050919050565b60006114cf82611494565b9050919050565b6000819050919050565b600073ffffffffffffffffffffffffffffffffffffffff82169050919050565b6000819050919050565b600060ff82169050919050565b600069ffffffffffffffffffff82169050919050565b7f4e487b7100000000000000000000000000000000000000000000000000000000600052601160045260246000fd5b7f4e487b7100000000000000000000000000000000000000000000000000000000600052601260045260246000fd5b60008160011c9050919050565b6115a181611494565b81146115ac57600080fd5b50565b6115b8816114a6565b81146115c357600080fd5b50565b6115cf816114b2565b81146115da57600080fd5b50565b6115e6816114c4565b81146115f157600080fd5b50565b6115fd816114d6565b811461160857600080fd5b50565b61161481611500565b811461161f57600080fd5b50565b61162b8161150a565b811461163657600080fd5b50565b61164281611517565b811461164d57600080fd5b5056fea264697066735822122044968833a13daaf334207720e18b4957787e8f34d6020ad9c0d3b9b1e8a9670564736f6c6343000800003360806040523480156200001157600080fd5b506040516200190638038062001906833981810160405281019062000037919062000370565b6040518060400160405280600f81526020017f4672616e6365426f72674d6f6e657900000000000000000000000000000000008152506040518060400160405280600381526020017f46424d00000000000000000000000000000000000000000000000000000000008152508160039080519060200190620000bb929190620002a9565b508060049080519060200190620000d4929190620002a9565b5050506200011633620000ec6200011d60201b60201c565b60ff16600a84620000fe91906200049c565b6200010a91906200049c565b6200012660201b60201c565b50620005b5565b60006012905090565b600073ffffffffffffffffffffffffffffffffffffffff168273ffffffffffffffffffffffffffffffffffffffff16141562000199576040517f08c379a00000000000000000000000000000000000000000000000000000000081526004016200019090620003ef565b60405180910390fd5b620001ad600083836200029f60201b60201c565b8060026000828254620001c191906200043f565b92505081905550806000808473ffffffffffffffffffffffffffffffffffffffff1673ffffffffffffffffffffffffffffffffffffffff16815260200190815260200160002060008282546200021891906200043f565b925050819055508173ffffffffffffffffffffffffffffffffffffffff16600073ffffffffffffffffffffffffffffffffffffffff167fddf252ad1be2c89b69c2b068fc378daa952ba7f163c4a11628f55a4df523b3ef836040516200027f919062000411565b60405180910390a36200029b60008383620002a460201b60201c565b5050565b505050565b505050565b828054620002b79062000507565b90600052602060002090601f016020900481019282620002db576000855562000327565b82601f10620002f657805160ff191683800117855562000327565b8280016001018555821562000327579182015b828111156200032657825182559160200191906001019062000309565b5b5090506200033691906200033a565b5090565b5b80821115620003555760008160009055506001016200033b565b5090565b6000815190506200036a816200059b565b92915050565b6000602082840312156200038357600080fd5b6000620003938482850162000359565b91505092915050565b6000620003ab601f836200042e565b91507f45524332303a206d696e7420746f20746865207a65726f2061646472657373006000830152602082019050919050565b620003e981620004fd565b82525050565b600060208201905081810360008301526200040a816200039c565b9050919050565b6000602082019050620004286000830184620003de565b92915050565b600082825260208201905092915050565b60006200044c82620004fd565b91506200045983620004fd565b9250827fffffffffffffffffffffffffffffffffffffffffffffffffffffffffffffffff038211156200049157620004906200053d565b5b828201905092915050565b6000620004a982620004fd565b9150620004b683620004fd565b9250817fffffffffffffffffffffffffffffffffffffffffffffffffffffffffffffffff0483118215151615620004f257620004f16200053d565b5b828202905092915050565b6000819050919050565b600060028204905060018216806200052057607f821691505b602082108114156200053757620005366200056c565b5b50919050565b7f4e487b7100000000000000000000000000000000000000000000000000000000600052601160045260246000fd5b7f4e487b7100000000000000000000000000000000000000000000000000000000600052602260045260246000fd5b620005a681620004fd565b8114620005b257600080fd5b50565b61134180620005c56000396000f3fe608060405234801561001057600080fd5b50600436106100a95760003560e01c80633950935111610071578063395093511461016857806370a082311461019857806395d89b41146101c8578063a457c2d7146101e6578063a9059cbb14610216578063dd62ed3e14610246576100a9565b806306fdde03146100ae578063095ea7b3146100cc57806318160ddd146100fc57806323b872dd1461011a578063313ce5671461014a575b600080fd5b6100b6610276565b6040516100c3919061100a565b60405180910390f35b6100e660048036038101906100e19190610c83565b610308565b6040516100f39190610fef565b60405180910390f35b610104610326565b604051610111919061110c565b60405180910390f35b610134600480360381019061012f9190610c34565b610330565b6040516101419190610fef565b60405180910390f35b610152610428565b60405161015f9190611127565b60405180910390f35b610182600480360381019061017d9190610c83565b610431565b60405161018f9190610fef565b60405180910390f35b6101b260048036038101906101ad9190610bcf565b6104dd565b6040516101bf919061110c565b60405180910390f35b6101d0610525565b6040516101dd919061100a565b60405180910390f35b61020060048036038101906101fb9190610c83565b6105b7565b60405161020d9190610fef565b60405180910390f35b610230600480360381019061022b9190610c83565b6106a2565b60405161023d9190610fef565b60405180910390f35b610260600480360381019061025b9190610bf8565b6106c0565b60405161026d919061110c565b60405180910390f35b6060600380546102859061123c565b80601f01602080910402602001604051908101604052809291908181526020018280546102b19061123c565b80156102fe5780601f106102d3576101008083540402835291602001916102fe565b820191906000526020600020905b8154815290600101906020018083116102e157829003601f168201915b5050505050905090565b600061031c610315610747565b848461074f565b6001905092915050565b6000600254905090565b600061033d84848461091a565b6000600160008673ffffffffffffffffffffffffffffffffffffffff1673ffffffffffffffffffffffffffffffffffffffff1681526020019081526020016000206000610388610747565b73ffffffffffffffffffffffffffffffffffffffff1673ffffffffffffffffffffffffffffffffffffffff16815260200190815260200160002054905082811015610408576040517f08c379a00000000000000000000000000000000000000000000000000000000081526004016103ff9061108c565b60405180910390fd5b61041c85610414610747565b85840361074f565b60019150509392505050565b60006012905090565b60006104d361043e610747565b84846001600061044c610747565b73ffffffffffffffffffffffffffffffffffffffff1673ffffffffffffffffffffffffffffffffffffffff16815260200190815260200160002060008873ffffffffffffffffffffffffffffffffffffffff1673ffffffffffffffffffffffffffffffffffffffff168152602001908152602001600020546104ce919061115e565b61074f565b6001905092915050565b60008060008373ffffffffffffffffffffffffffffffffffffffff1673ffffffffffffffffffffffffffffffffffffffff168152602001908152602001600020549050919050565b6060600480546105349061123c565b80601f01602080910402602001604051908101604052809291908181526020018280546105609061123c565b80156105ad5780601f10610582576101008083540402835291602001916105ad565b820191906000526020600020905b81548152906001019060200180831161059057829003601f168201915b5050505050905090565b600080600160006105c6610747565b73ffffffffffffffffffffffffffffffffffffffff1673ffffffffffffffffffffffffffffffffffffffff16815260200190815260200160002060008573ffffffffffffffffffffffffffffffffffffffff1673ffffffffffffffffffffffffffffffffffffffff16815260200190815260200160002054905082811015610683576040517f08c379a000000000000000000000000000000000000000000000000000000000815260040161067a906110ec565b60405180910390fd5b61069761068e610747565b8585840361074f565b600191505092915050565b60006106b66106af610747565b848461091a565b6001905092915050565b6000600160008473ffffffffffffffffffffffffffffffffffffffff1673ffffffffffffffffffffffffffffffffffffffff16815260200190815260200160002060008373ffffffffffffffffffffffffffffffffffffffff1673ffffffffffffffffffffffffffffffffffffffff16815260200190815260200160002054905092915050565b600033905090565b600073ffffffffffffffffffffffffffffffffffffffff168373ffffffffffffffffffffffffffffffffffffffff1614156107bf576040517f08c379a00000000000000000000000000000000000000000000000000000000081526004016107b6906110cc565b60405180910390fd5b600073ffffffffffffffffffffffffffffffffffffffff168273ffffffffffffffffffffffffffffffffffffffff16141561082f576040517f08c379a00000000000000000000000000000000000000000000000000000000081526004016108269061104c565b60405180910390fd5b80600160008573ffffffffffffffffffffffffffffffffffffffff1673ffffffffffffffffffffffffffffffffffffffff16815260200190815260200160002060008473ffffffffffffffffffffffffffffffffffffffff1673ffffffffffffffffffffffffffffffffffffffff168152602001908152602001600020819055508173ffffffffffffffffffffffffffffffffffffffff168373ffffffffffffffffffffffffffffffffffffffff167f8c5be1e5ebec7d5bd14f71427d1e84f3dd0314c0f7b2291e5b200ac8c7c3b9258360405161090d919061110c565b60405180910390a3505050565b600073ffffffffffffffffffffffffffffffffffffffff168373ffffffffffffffffffffffffffffffffffffffff16141561098a576040517f08c379a0000000000000000000000000000000000000000000000000000000008152600401610981906110ac565b60405180910390fd5b600073ffffffffffffffffffffffffffffffffffffffff168273ffffffffffffffffffffffffffffffffffffffff1614156109fa576040517f08c379a00000000000000000000000000000000000000000000000000000000081526004016109f19061102c565b60405180910390fd5b610a05838383610b9b565b60008060008573ffffffffffffffffffffffffffffffffffffffff1673ffffffffffffffffffffffffffffffffffffffff16815260200190815260200160002054905081811015610a8b576040517f08c379a0000000000000000000000000000000000000000000000000000000008152600401610a829061106c565b60405180910390fd5b8181036000808673ffffffffffffffffffffffffffffffffffffffff1673ffffffffffffffffffffffffffffffffffffffff16815260200190815260200160002081905550816000808573ffffffffffffffffffffffffffffffffffffffff1673ffffffffffffffffffffffffffffffffffffffff1681526020019081526020016000206000828254610b1e919061115e565b925050819055508273ffffffffffffffffffffffffffffffffffffffff168473ffffffffffffffffffffffffffffffffffffffff167fddf252ad1be2c89b69c2b068fc378daa952ba7f163c4a11628f55a4df523b3ef84604051610b82919061110c565b60405180910390a3610b95848484610ba0565b50505050565b505050565b505050565b600081359050610bb4816112dd565b92915050565b600081359050610bc9816112f4565b92915050565b600060208284031215610be157600080fd5b6000610bef84828501610ba5565b91505092915050565b60008060408385031215610c0b57600080fd5b6000610c1985828601610ba5565b9250506020610c2a85828601610ba5565b9150509250929050565b600080600060608486031215610c4957600080fd5b6000610c5786828701610ba5565b9350506020610c6886828701610ba5565b9250506040610c7986828701610bba565b9150509250925092565b60008060408385031215610c9657600080fd5b6000610ca485828601610ba5565b9250506020610cb585828601610bba565b9150509250929050565b610cc8816111c6565b82525050565b6000610cd982611142565b610ce3818561114d565b9350610cf3818560208601611209565b610cfc816112cc565b840191505092915050565b6000610d1460238361114d565b91507f45524332303a207472616e7366657220746f20746865207a65726f206164647260008301527f65737300000000000000000000000000000000000000000000000000000000006020830152604082019050919050565b6000610d7a60228361114d565b91507f45524332303a20617070726f766520746f20746865207a65726f20616464726560008301527f73730000000000000000000000000000000000000000000000000000000000006020830152604082019050919050565b6000610de060268361114d565b91507f45524332303a207472616e7366657220616d6f756e742065786365656473206260008301527f616c616e636500000000000000000000000000000000000000000000000000006020830152604082019050919050565b6000610e4660288361114d565b91507f45524332303a207472616e7366657220616d6f756e742065786365656473206160008301527f6c6c6f77616e63650000000000000000000000000000000000000000000000006020830152604082019050919050565b6000610eac60258361114d565b91507f45524332303a207472616e736665722066726f6d20746865207a65726f20616460008301527f64726573730000000000000000000000000000000000000000000000000000006020830152604082019050919050565b6000610f1260248361114d565b91507f45524332303a20617070726f76652066726f6d20746865207a65726f2061646460008301527f72657373000000000000000000000000000000000000000000000000000000006020830152604082019050919050565b6000610f7860258361114d565b91507f45524332303a2064656372656173656420616c6c6f77616e63652062656c6f7760008301527f207a65726f0000000000000000000000000000000000000000000000000000006020830152604082019050919050565b610fda816111f2565b82525050565b610fe9816111fc565b82525050565b60006020820190506110046000830184610cbf565b92915050565b600060208201905081810360008301526110248184610cce565b905092915050565b6000602082019050818103600083015261104581610d07565b9050919050565b6000602082019050818103600083015261106581610d6d565b9050919050565b6000602082019050818103600083015261108581610dd3565b9050919050565b600060208201905081810360008301526110a581610e39565b9050919050565b600060208201905081810360008301526110c581610e9f565b9050919050565b600060208201905081810360008301526110e581610f05565b9050919050565b6000602082019050818103600083015261110581610f6b565b9050919050565b60006020820190506111216000830184610fd1565b92915050565b600060208201905061113c6000830184610fe0565b92915050565b600081519050919050565b600082825260208201905092915050565b6000611169826111f2565b9150611174836111f2565b9250827fffffffffffffffffffffffffffffffffffffffffffffffffffffffffffffffff038211156111a9576111a861126e565b5b828201905092915050565b60006111bf826111d2565b9050919050565b60008115159050919050565b600073ffffffffffffffffffffffffffffffffffffffff82169050919050565b6000819050919050565b600060ff82169050919050565b60005b8381101561122757808201518184015260208101905061120c565b83811115611236576000848401525b50505050565b6000600282049050600182168061125457607f821691505b602082108114156112685761126761129d565b5b50919050565b7f4e487b7100000000000000000000000000000000000000000000000000000000600052601160045260246000fd5b7f4e487b7100000000000000000000000000000000000000000000000000000000600052602260045260246000fd5b6000601f19601f8301169050919050565b6112e6816111b4565b81146112f157600080fd5b50565b6112fd816111f2565b811461130857600080fd5b5056fea26469706673582212205ff218eba45edf4e70356b06066e1af0aea0d449ea5c48f133f4cfd1fe11718364736f6c63430008000033",
  "immutableReferences": {},
  "source": "// SPDX-License-Identifier:MIT\n\npragma solidity 0.8.0;\n\nimport \"@openzeppelin/contracts/token/ERC20/ERC20.sol\";\nimport \"@chainlink/contracts/src/v0.8/interfaces/AggregatorV3Interface.sol\";\nimport \"./FBMoney.sol\";\n\nstruct Stake {\n\tuint256 dateOfValue;\n\tuint256 amount;\n}\nstruct Bonus {\n\tuint256 amount;\n\tuint256 dateOfValue;\n}\n\ncontract FBStaker {\n\tFBMoney private _FrenchBorgTokenProvider;\n\tuint256 _Rate = 1;\n\tuint8 _Decimals;\n\n\tmapping(address => mapping(address => Stake)) stakeList; // Liste des stakes en cours\n\tmapping(address => Bonus) bonusList; // List des bonus par utilisateur\n\tmapping(address => uint256) tokenPool; // List des tokens rcuprs\n\n\tmodifier notNull256(uint256 v) {\n\t\trequire(v != 0);\n\t\t_;\n\t}\n\n\tconstructor() {\n\t\t_FrenchBorgTokenProvider = new FBMoney(1000);\n\t\t_Decimals = _FrenchBorgTokenProvider.decimals();\n\t}\n\n\t/**\n\t * @dev Returns the balance of our home made token for bonuses\n\t */\n\tfunction getMoneyBalance() external view returns (uint256) {\n\t\treturn _FrenchBorgTokenProvider.balanceOf(msg.sender);\n\t}\n\n\tfunction getTokenStakedBalance(ERC20 Token)\n\t\texternal\n\t\tview\n\t\treturns (uint256)\n\t{\n\t\treturn stakeList[msg.sender][address(Token)].amount;\n\t}\n\n\t/**\n\t * @dev Make money compatibles if they don't have the same Decimals\n\t */\n\tfunction scalePrice(\n\t\tint256 _price,\n\t\tuint8 _priceDecimals,\n\t\tuint8 _decimals\n\t) internal pure returns (int256) {\n\t\t// provient de https://docs.chain.link/docs/get-the-latest-price/\n\t\t// permet d'adapter les prix en fctn des decimales de chaque monnaie\n\t\tif (_priceDecimals < _decimals) {\n\t\t\treturn _price * int256(10**uint256(_decimals - _priceDecimals));\n\t\t} else if (_priceDecimals > _decimals) {\n\t\t\treturn _price / int256(10**uint256(_priceDecimals - _decimals));\n\t\t}\n\t\treturn _price;\n\t}\n\n\t/**\n\t * @dev Retourne le ratio temporel en utilisant le delta des blocks\n\t * @param Stk Current stake for customers\n\t */\n\tfunction getRate(Stake memory Stk) internal view returns (uint256) {\n\t\trequire(block.number > Stk.dateOfValue, \"invalid block number\");\n\t\t// _Rate vaut 1, parit avec ethereum\n\t\t// 152470 = 30 * 24 * 60 * 60 / 17\n\t\t// return Delta Block * Taux par mois / BlockParMois\n\t\treturn\n\t\t\tuint256(\n\t\t\t\t((uint256(block.number - Stk.dateOfValue) * _Rate) /\n\t\t\t\t\tuint256(152470))\n\t\t\t);\n\t}\n\n\t/**\n\t * @dev Given a stake, returns the value of potential bonuses\n\t * @param Stk Current stake for customers\n\t * @param Aggregator used for getting Token value\n\t */\n\tfunction computeBonus(Stake memory Stk, address Aggregator)\n\t\tinternal\n\t\tview\n\t\treturns (int256)\n\t{\n\t\t// On rcupere le prix en ETH\n\t\t(, int256 ratio, , , ) = AggregatorV3Interface(Aggregator)\n\t\t\t.latestRoundData();\n\t\tuint8 tokenDecimals = AggregatorV3Interface(Aggregator).decimals();\n\t\t// On remet a l'echelle en fonction des decimales de chaque monnaie si besoin\n\t\tif (tokenDecimals != _Decimals)\n\t\t\treturn\n\t\t\t\tint256(Stk.amount * getRate(Stk)) *\n\t\t\t\tratio *\n\t\t\t\tint256(scalePrice(ratio, tokenDecimals, _Decimals));\n\t\treturn int256(Stk.amount * getRate(Stk)) * ratio;\n\t}\n\n\t/**\n\t * @dev Querying current status of staking - external funk\n\t * @param Token Token staked by customers\n\t * @param Aggregator Provided by JS for evaluating values\n\t */\n\tfunction evaluateBonus(IERC20 Token, address Aggregator)\n\t\texternal\n\t\tview\n\t\treturns (int256)\n\t{\n\t\tStake memory Stk = stakeList[msg.sender][address(Token)];\n\t\treturn computeBonus(Stk, Aggregator);\n\t}\n\n\t/**\n\t * @dev Internal function for evaluating and retrieving Bonuses\n\t * @param Stk Current stake for customers\n\t * @param Aggregator used for getting Token value\n\t */\n\tfunction retrieveBonus(address Aggregator, Stake memory Stk) internal {\n\t\tint256 bonus = computeBonus(Stk, Aggregator);\n\t\tif (bonus < 0) bonus = 0;\n\n\t\t// Remember we are retrieving, for next evaluation\n\t\tbonusList[msg.sender].dateOfValue = block.number;\n\t\tStk.dateOfValue = block.number;\n\n\t\t// Transfer Bonuses to customer\n\t\tif (bonus != 0) {\n\t\t\tbonusList[msg.sender].amount += uint256(bonus);\n\t\t\t_FrenchBorgTokenProvider.transfer(msg.sender, uint256(bonus));\n\t\t}\n\t}\n\n\t/**\n\t * @dev Stake swap some tokens for our money token\n\t * @param Token customer's Token\n\t * @param amount amount of customer's token to Stake\n\t * @param Aggregator Provided by JS for the correct PAIR\n\t */\n\tfunction StakeTokens(\n\t\tIERC20 Token,\n\t\tuint256 amount,\n\t\taddress Aggregator\n\t) external notNull256(amount) {\n\t\tassert(address(Token) != address(0));\n\t\tassert(address(Aggregator) != address(0));\n\t\t// Trouve la reference du client\n\t\tStake memory Stk = stakeList[msg.sender][address(Token)];\n\n\t\t// On mmorise la quantit par token, pour utilisation eventuelle\n\t\ttokenPool[address(Token)] += amount;\n\n\t\t// Compute and transfer Bonus\n\t\t//Le stake n'est peut etre pas vide, aussi on doit d'abord mettre a jour les bonuses\n\t\tretrieveBonus(Aggregator, Stk);\n\t\tstakeList[msg.sender][address(Token)].amount += amount;\n\t\t// Transfer the tokens, supposing the approve has been done\n\t\tToken.transferFrom(msg.sender, address(this), amount);\n\t}\n\n\t/**\n\t * @dev Unstake the staked tokens\n\t * @param Token customer's Token\n\t * @param amount amount of customer's token to Stake\n\t * @param Aggregator Provided by JS for the correct PAIR\n\t */\n\tfunction UnstakeTokens(\n\t\tIERC20 Token,\n\t\tuint256 amount,\n\t\taddress Aggregator\n\t) external notNull256(amount) {\n\t\trequire(address(Token) != address(0));\n\t\trequire(address(Aggregator) != address(0));\n\n\t\t// Trouve la reference du client\n\t\tStake memory Stk = stakeList[msg.sender][address(Token)];\n\t\t// On essai de retirer de trop ?\n\t\trequire(Stk.amount >= amount, \"amount too high\");\n\n\t\t// Compute and transfer Bonus\n\t\tretrieveBonus(Aggregator, Stk);\n\t\tStk.amount -= amount;\n\t\tToken.transferFrom(address(this), msg.sender, amount);\n\t}\n}\n",
  "sourcePath": "/home/pec/Formation/Ethereum/Staking/contracts/FBStaker.sol",
  "compiler": {
    "name": "solc",
    "version": "0.8.0+commit.c7dfd78e.Emscripten.clang"
  },
  "schemaVersion": "3.4.3",
  "updatedAt": "2021-11-05T09:26:40.630Z",
  "devdoc": {
    "kind": "dev",
    "methods": {
      "StakeTokens(address,uint256,address)": {
        "details": "Stake swap some tokens for our money token",
        "params": {
          "Aggregator": "Provided by JS for the correct PAIR",
          "Token": "customer's Token",
          "amount": "amount of customer's token to Stake"
        }
      },
      "UnstakeTokens(address,uint256,address)": {
        "details": "Unstake the staked tokens",
        "params": {
          "Aggregator": "Provided by JS for the correct PAIR",
          "Token": "customer's Token",
          "amount": "amount of customer's token to Stake"
        }
      },
      "evaluateBonus(address,address)": {
        "details": "Querying current status of staking - external funk",
        "params": {
          "Aggregator": "Provided by JS for evaluating values",
          "Token": "Token staked by customers"
        }
      },
      "getMoneyBalance()": {
        "details": "Returns the balance of our home made token for bonuses"
      }
    },
    "version": 1
  },
  "userdoc": {
    "kind": "user",
    "methods": {},
    "version": 1
  }
}