{
  "contractName": "FBStaker",
  "abi": [
    {
      "inputs": [],
      "stateMutability": "nonpayable",
      "type": "constructor"
    },
    {
      "anonymous": false,
      "inputs": [
        {
          "indexed": false,
          "internalType": "address",
          "name": "adr",
          "type": "address"
        },
        {
          "indexed": false,
          "internalType": "uint256",
          "name": "amount",
          "type": "uint256"
        }
      ],
      "name": "BonusRetrieved",
      "type": "event"
    },
    {
      "anonymous": false,
      "inputs": [
        {
          "indexed": false,
          "internalType": "address",
          "name": "Customer",
          "type": "address"
        },
        {
          "indexed": false,
          "internalType": "contract IERC20",
          "name": "Token",
          "type": "address"
        }
      ],
      "name": "BonusRound",
      "type": "event"
    },
    {
      "anonymous": false,
      "inputs": [
        {
          "indexed": false,
          "internalType": "address",
          "name": "adr",
          "type": "address"
        },
        {
          "indexed": false,
          "internalType": "contract IERC20",
          "name": "Tkn",
          "type": "address"
        },
        {
          "indexed": false,
          "internalType": "uint256",
          "name": "amount",
          "type": "uint256"
        }
      ],
      "name": "TokenStaked",
      "type": "event"
    },
    {
      "anonymous": false,
      "inputs": [
        {
          "indexed": false,
          "internalType": "address",
          "name": "adr",
          "type": "address"
        },
        {
          "indexed": false,
          "internalType": "contract IERC20",
          "name": "Tkn",
          "type": "address"
        },
        {
          "indexed": false,
          "internalType": "uint256",
          "name": "amount",
          "type": "uint256"
        }
      ],
      "name": "TokenUnstaked",
      "type": "event"
    },
    {
      "inputs": [],
      "name": "getMoneyBalance",
      "outputs": [
        {
          "internalType": "uint256",
          "name": "",
          "type": "uint256"
        }
      ],
      "stateMutability": "view",
      "type": "function",
      "constant": true
    },
    {
      "inputs": [
        {
          "internalType": "contract ERC20",
          "name": "Token",
          "type": "address"
        }
      ],
      "name": "getTokenStakedBalance",
      "outputs": [
        {
          "internalType": "uint256",
          "name": "",
          "type": "uint256"
        }
      ],
      "stateMutability": "view",
      "type": "function",
      "constant": true
    },
    {
      "inputs": [
        {
          "internalType": "address",
          "name": "customer",
          "type": "address"
        }
      ],
      "name": "retrieveBonuses",
      "outputs": [],
      "stateMutability": "nonpayable",
      "type": "function"
    },
    {
      "inputs": [
        {
          "internalType": "contract IERC20",
          "name": "Token",
          "type": "address"
        },
        {
          "internalType": "uint256",
          "name": "amount",
          "type": "uint256"
        },
        {
          "internalType": "address",
          "name": "Aggregator",
          "type": "address"
        }
      ],
      "name": "StakeTokens",
      "outputs": [],
      "stateMutability": "nonpayable",
      "type": "function"
    },
    {
      "inputs": [
        {
          "internalType": "address",
          "name": "Customer",
          "type": "address"
        },
        {
          "internalType": "contract IERC20",
          "name": "Token",
          "type": "address"
        },
        {
          "internalType": "uint256",
          "name": "amount",
          "type": "uint256"
        },
        {
          "internalType": "address",
          "name": "Aggregator",
          "type": "address"
        }
      ],
      "name": "UnstakeTokens",
      "outputs": [],
      "stateMutability": "nonpayable",
      "type": "function"
    },
    {
      "inputs": [
        {
          "internalType": "address",
          "name": "Customer",
          "type": "address"
        },
        {
          "internalType": "contract IERC20",
          "name": "Token",
          "type": "address"
        },
        {
          "internalType": "address",
          "name": "Aggregator",
          "type": "address"
        }
      ],
      "name": "bonusRound",
      "outputs": [],
      "stateMutability": "nonpayable",
      "type": "function"
    }
  ],
  "bytecode": "0x608060405260016000553480156200001657600080fd5b506103e86040516200002890620000b4565b620000349190620000d3565b604051809103906000f08015801562000051573d6000803e3d6000fd5b50600460016101000a81548173ffffffffffffffffffffffffffffffffffffffff021916908373ffffffffffffffffffffffffffffffffffffffff1602179055506012600460006101000a81548160ff021916908360ff1602179055506200010e565b6119068062001bfa83390190565b620000cd81620000fa565b82525050565b6000602082019050620000ea6000830184620000c2565b92915050565b6000819050919050565b60006200010782620000f0565b9050919050565b611adc806200011e6000396000f3fe608060405234801561001057600080fd5b50600436106100625760003560e01c8063093e5a1d146100675780633544357114610083578063469c67541461009f5780639da3f76d146100bb578063b80f5f89146100d7578063e2f59ec914610107575b600080fd5b610081600480360381019061007c9190611052565b610125565b005b61009d6004803603810190610098919061117f565b6102e8565b005b6100b960048036038101906100b4919061107b565b6105b0565b005b6100d560048036038101906100d091906110ca565b6107f9565b005b6100f160048036038101906100ec9190611156565b610b43565b6040516100fe919061145f565b60405180910390f35b61010f610bcc565b60405161011c919061145f565b60405180910390f35b80600073ffffffffffffffffffffffffffffffffffffffff168173ffffffffffffffffffffffffffffffffffffffff16141561016057600080fd5b6000600260008473ffffffffffffffffffffffffffffffffffffffff1673ffffffffffffffffffffffffffffffffffffffff168152602001908152602001600020600001549050600081146102e3576000600260008573ffffffffffffffffffffffffffffffffffffffff1673ffffffffffffffffffffffffffffffffffffffff168152602001908152602001600020600001819055507f03d0edaee35df77920681c2dbc0bdb40062585adafef0b3547bd994c9de2668c83826040516102289291906113f6565b60405180910390a1600460019054906101000a900473ffffffffffffffffffffffffffffffffffffffff1673ffffffffffffffffffffffffffffffffffffffff166323b872dd3385846040518463ffffffff1660e01b815260040161028f9392919061135f565b602060405180830381600087803b1580156102a957600080fd5b505af11580156102bd573d6000803e3d6000fd5b505050506040513d601f19601f820116820180604052508101906102e1919061112d565b505b505050565b8160008114156102f757600080fd5b83600073ffffffffffffffffffffffffffffffffffffffff168173ffffffffffffffffffffffffffffffffffffffff16141561033257600080fd5b82600073ffffffffffffffffffffffffffffffffffffffff168173ffffffffffffffffffffffffffffffffffffffff16141561036d57600080fd5b6000600160003373ffffffffffffffffffffffffffffffffffffffff1673ffffffffffffffffffffffffffffffffffffffff16815260200190815260200160002060008873ffffffffffffffffffffffffffffffffffffffff1673ffffffffffffffffffffffffffffffffffffffff16815260200190815260200160002060405180604001604052908160008201548152602001600182015481525050905060008160200151111561042557610424338683610c7e565b5b8581602001818151610437919061148b565b915081815250504381600001818152505080600160003373ffffffffffffffffffffffffffffffffffffffff1673ffffffffffffffffffffffffffffffffffffffff16815260200190815260200160002060008973ffffffffffffffffffffffffffffffffffffffff1673ffffffffffffffffffffffffffffffffffffffff16815260200190815260200160002060008201518160000155602082015181600101559050507f17a90bf25d618e67de9bc66de5762d97787b11707d112164ab54c37111467f2b33888860405161050f939291906113bf565b60405180910390a18673ffffffffffffffffffffffffffffffffffffffff166323b872dd3330896040518463ffffffff1660e01b81526004016105549392919061135f565b602060405180830381600087803b15801561056e57600080fd5b505af1158015610582573d6000803e3d6000fd5b505050506040513d601f19601f820116820180604052508101906105a6919061112d565b5050505050505050565b82600073ffffffffffffffffffffffffffffffffffffffff168173ffffffffffffffffffffffffffffffffffffffff1614156105eb57600080fd5b82600073ffffffffffffffffffffffffffffffffffffffff168173ffffffffffffffffffffffffffffffffffffffff16141561062657600080fd5b82600073ffffffffffffffffffffffffffffffffffffffff168173ffffffffffffffffffffffffffffffffffffffff16141561066157600080fd5b6000600160008873ffffffffffffffffffffffffffffffffffffffff1673ffffffffffffffffffffffffffffffffffffffff16815260200190815260200160002060008773ffffffffffffffffffffffffffffffffffffffff1673ffffffffffffffffffffffffffffffffffffffff1681526020019081526020016000206040518060400160405290816000820154815260200160018201548152505090506000816020015111156107b757610718878683610c7e565b4381600001818152505080600160008973ffffffffffffffffffffffffffffffffffffffff1673ffffffffffffffffffffffffffffffffffffffff16815260200190815260200160002060008873ffffffffffffffffffffffffffffffffffffffff1673ffffffffffffffffffffffffffffffffffffffff16815260200190815260200160002060008201518160000155602082015181600101559050505b7f543e2a778776598bebee5d88699813b2a595a90ce0382574f046ce60b29085b387876040516107e8929190611396565b60405180910390a150505050505050565b81600081141561080857600080fd5b84600073ffffffffffffffffffffffffffffffffffffffff168173ffffffffffffffffffffffffffffffffffffffff16141561084357600080fd5b84600073ffffffffffffffffffffffffffffffffffffffff168173ffffffffffffffffffffffffffffffffffffffff16141561087e57600080fd5b83600073ffffffffffffffffffffffffffffffffffffffff168173ffffffffffffffffffffffffffffffffffffffff1614156108b957600080fd5b6000600160008a73ffffffffffffffffffffffffffffffffffffffff1673ffffffffffffffffffffffffffffffffffffffff16815260200190815260200160002060008973ffffffffffffffffffffffffffffffffffffffff1673ffffffffffffffffffffffffffffffffffffffff168152602001908152602001600020604051806040016040529081600082015481526020016001820154815250509050868160200151101561099f576040517f08c379a00000000000000000000000000000000000000000000000000000000081526004016109969061141f565b60405180910390fd5b6000816020015111156109b8576109b7898783610c7e565b5b86816020018181516109ca919061185e565b915081815250504381600001818152505080600160008b73ffffffffffffffffffffffffffffffffffffffff1673ffffffffffffffffffffffffffffffffffffffff16815260200190815260200160002060008a73ffffffffffffffffffffffffffffffffffffffff1673ffffffffffffffffffffffffffffffffffffffff16815260200190815260200160002060008201518160000155602082015181600101559050507f4c5a68df1e54dd796657dc5832c88515a36dc92548af9951a0ef38dd61a3322e898989604051610aa2939291906113bf565b60405180910390a18773ffffffffffffffffffffffffffffffffffffffff1663a9059cbb8a896040518363ffffffff1660e01b8152600401610ae59291906113f6565b602060405180830381600087803b158015610aff57600080fd5b505af1158015610b13573d6000803e3d6000fd5b505050506040513d601f19601f82011682018060405250810190610b37919061112d565b50505050505050505050565b6000600160003373ffffffffffffffffffffffffffffffffffffffff1673ffffffffffffffffffffffffffffffffffffffff16815260200190815260200160002060008373ffffffffffffffffffffffffffffffffffffffff1673ffffffffffffffffffffffffffffffffffffffff168152602001908152602001600020600101549050919050565b6000600460019054906101000a900473ffffffffffffffffffffffffffffffffffffffff1673ffffffffffffffffffffffffffffffffffffffff166370a08231336040518263ffffffff1660e01b8152600401610c299190611344565b60206040518083038186803b158015610c4157600080fd5b505afa158015610c55573d6000803e3d6000fd5b505050506040513d601f19601f82011682018060405250810190610c7991906111ce565b905090565b6000610c8a8284610cf5565b90506000811115610cef5780600260008673ffffffffffffffffffffffffffffffffffffffff1673ffffffffffffffffffffffffffffffffffffffff1681526020019081526020016000206000016000828254610ce7919061148b565b925050819055505b50505050565b6000808273ffffffffffffffffffffffffffffffffffffffff1663feaf968c6040518163ffffffff1660e01b815260040160a06040518083038186803b158015610d3e57600080fd5b505afa158015610d52573d6000803e3d6000fd5b505050506040513d601f19601f82011682018060405250810190610d7691906111f7565b50505091505060008373ffffffffffffffffffffffffffffffffffffffff1663313ce5676040518163ffffffff1660e01b815260040160206040518083038186803b158015610dc457600080fd5b505afa158015610dd8573d6000803e3d6000fd5b505050506040513d601f19601f82011682018060405250810190610dfc919061126e565b9050600460009054906101000a900460ff1660ff168160ff1614610e6a5781610e358383600460009054906101000a900460ff16610e98565b610e3f91906116ed565b610e4886610f1b565b8660200151610e579190611804565b610e619190611804565b92505050610e92565b81610e7486610f1b565b8660200151610e839190611804565b610e8d9190611804565b925050505b92915050565b60008160ff168360ff161015610ed5578282610eb49190611892565b60ff16600a610ec391906115cf565b84610ece91906116ed565b9050610f14565b8160ff168360ff161115610f10578183610eef9190611892565b60ff16600a610efe91906115cf565b84610f0991906114e1565b9050610f14565b8390505b9392505050565b600081600001514311610f63576040517f08c379a0000000000000000000000000000000000000000000000000000000008152600401610f5a9061143f565b60405180910390fd5b62030ad9600054836000015143610f7a919061185e565b610f849190611804565b610f8e919061154b565b9050919050565b600081359050610fa4816119ee565b92915050565b600081519050610fb981611a05565b92915050565b600081359050610fce81611a1c565b92915050565b600081359050610fe381611a33565b92915050565b600081519050610ff881611a4a565b92915050565b60008135905061100d81611a61565b92915050565b60008151905061102281611a61565b92915050565b60008151905061103781611a8f565b92915050565b60008151905061104c81611a78565b92915050565b60006020828403121561106457600080fd5b600061107284828501610f95565b91505092915050565b60008060006060848603121561109057600080fd5b600061109e86828701610f95565b93505060206110af86828701610fd4565b92505060406110c086828701610f95565b9150509250925092565b600080600080608085870312156110e057600080fd5b60006110ee87828801610f95565b94505060206110ff87828801610fd4565b935050604061111087828801610ffe565b925050606061112187828801610f95565b91505092959194509250565b60006020828403121561113f57600080fd5b600061114d84828501610faa565b91505092915050565b60006020828403121561116857600080fd5b600061117684828501610fbf565b91505092915050565b60008060006060848603121561119457600080fd5b60006111a286828701610fd4565b93505060206111b386828701610ffe565b92505060406111c486828701610f95565b9150509250925092565b6000602082840312156111e057600080fd5b60006111ee84828501611013565b91505092915050565b600080600080600060a0868803121561120f57600080fd5b600061121d88828901611028565b955050602061122e88828901610fe9565b945050604061123f88828901611013565b935050606061125088828901611013565b925050608061126188828901611028565b9150509295509295909350565b60006020828403121561128057600080fd5b600061128e8482850161103d565b91505092915050565b6112a0816118c6565b82525050565b6112af8161195f565b82525050565b60006112c2600f8361147a565b91507f616d6f756e7420746f6f206869676800000000000000000000000000000000006000830152602082019050919050565b600061130260148361147a565b91507f696e76616c696420626c6f636b206e756d6265720000000000000000000000006000830152602082019050919050565b61133e81611932565b82525050565b60006020820190506113596000830184611297565b92915050565b60006060820190506113746000830186611297565b6113816020830185611297565b61138e6040830184611335565b949350505050565b60006040820190506113ab6000830185611297565b6113b860208301846112a6565b9392505050565b60006060820190506113d46000830186611297565b6113e160208301856112a6565b6113ee6040830184611335565b949350505050565b600060408201905061140b6000830185611297565b6114186020830184611335565b9392505050565b60006020820190508181036000830152611438816112b5565b9050919050565b60006020820190508181036000830152611458816112f5565b9050919050565b60006020820190506114746000830184611335565b92915050565b600082825260208201905092915050565b600061149682611932565b91506114a183611932565b9250827fffffffffffffffffffffffffffffffffffffffffffffffffffffffffffffffff038211156114d6576114d5611983565b5b828201905092915050565b60006114ec82611908565b91506114f783611908565b925082611507576115066119b2565b5b600160000383147f8000000000000000000000000000000000000000000000000000000000000000831416156115405761153f611983565b5b828205905092915050565b600061155682611932565b915061156183611932565b925082611571576115706119b2565b5b828204905092915050565b6000808291508390505b60018511156115c6578086048111156115a2576115a1611983565b5b60018516156115b15780820291505b80810290506115bf856119e1565b9450611586565b94509492505050565b60006115da82611932565b91506115e583611932565b92506116127fffffffffffffffffffffffffffffffffffffffffffffffffffffffffffffffff848461161a565b905092915050565b60008261162a57600190506116e6565b8161163857600090506116e6565b816001811461164e576002811461165857611687565b60019150506116e6565b60ff84111561166a57611669611983565b5b8360020a91508482111561168157611680611983565b5b506116e6565b5060208310610133831016604e8410600b84101617156116bc5782820a9050838111156116b7576116b6611983565b5b6116e6565b6116c9848484600161157c565b925090508184048111156116e0576116df611983565b5b81810290505b9392505050565b60006116f882611908565b915061170383611908565b9250827f7fffffffffffffffffffffffffffffffffffffffffffffffffffffffffffffff048211600084136000841316161561174257611741611983565b5b817f8000000000000000000000000000000000000000000000000000000000000000058312600084126000841316161561177f5761177e611983565b5b827f800000000000000000000000000000000000000000000000000000000000000005821260008413600084121616156117bc576117bb611983565b5b827f7fffffffffffffffffffffffffffffffffffffffffffffffffffffffffffffff05821260008412600084121616156117f9576117f8611983565b5b828202905092915050565b600061180f82611932565b915061181a83611932565b9250817fffffffffffffffffffffffffffffffffffffffffffffffffffffffffffffffff048311821515161561185357611852611983565b5b828202905092915050565b600061186982611932565b915061187483611932565b92508282101561188757611886611983565b5b828203905092915050565b600061189d8261193c565b91506118a88361193c565b9250828210156118bb576118ba611983565b5b828203905092915050565b60006118d182611912565b9050919050565b60008115159050919050565b60006118ef826118c6565b9050919050565b6000611901826118c6565b9050919050565b6000819050919050565b600073ffffffffffffffffffffffffffffffffffffffff82169050919050565b6000819050919050565b600060ff82169050919050565b600069ffffffffffffffffffff82169050919050565b600061196a82611971565b9050919050565b600061197c82611912565b9050919050565b7f4e487b7100000000000000000000000000000000000000000000000000000000600052601160045260246000fd5b7f4e487b7100000000000000000000000000000000000000000000000000000000600052601260045260246000fd5b60008160011c9050919050565b6119f7816118c6565b8114611a0257600080fd5b50565b611a0e816118d8565b8114611a1957600080fd5b50565b611a25816118e4565b8114611a3057600080fd5b50565b611a3c816118f6565b8114611a4757600080fd5b50565b611a5381611908565b8114611a5e57600080fd5b50565b611a6a81611932565b8114611a7557600080fd5b50565b611a818161193c565b8114611a8c57600080fd5b50565b611a9881611949565b8114611aa357600080fd5b5056fea2646970667358221220660a0de0c9daba240b738a10a73fd48daca4eff3c8192ffc4b7bab9db48cdf2964736f6c6343000800003360806040523480156200001157600080fd5b506040516200190638038062001906833981810160405281019062000037919062000370565b6040518060400160405280600f81526020017f4672616e6365426f72674d6f6e657900000000000000000000000000000000008152506040518060400160405280600381526020017f46424d00000000000000000000000000000000000000000000000000000000008152508160039080519060200190620000bb929190620002a9565b508060049080519060200190620000d4929190620002a9565b5050506200011633620000ec6200011d60201b60201c565b60ff16600a84620000fe91906200049c565b6200010a91906200049c565b6200012660201b60201c565b50620005b5565b60006012905090565b600073ffffffffffffffffffffffffffffffffffffffff168273ffffffffffffffffffffffffffffffffffffffff16141562000199576040517f08c379a00000000000000000000000000000000000000000000000000000000081526004016200019090620003ef565b60405180910390fd5b620001ad600083836200029f60201b60201c565b8060026000828254620001c191906200043f565b92505081905550806000808473ffffffffffffffffffffffffffffffffffffffff1673ffffffffffffffffffffffffffffffffffffffff16815260200190815260200160002060008282546200021891906200043f565b925050819055508173ffffffffffffffffffffffffffffffffffffffff16600073ffffffffffffffffffffffffffffffffffffffff167fddf252ad1be2c89b69c2b068fc378daa952ba7f163c4a11628f55a4df523b3ef836040516200027f919062000411565b60405180910390a36200029b60008383620002a460201b60201c565b5050565b505050565b505050565b828054620002b79062000507565b90600052602060002090601f016020900481019282620002db576000855562000327565b82601f10620002f657805160ff191683800117855562000327565b8280016001018555821562000327579182015b828111156200032657825182559160200191906001019062000309565b5b5090506200033691906200033a565b5090565b5b80821115620003555760008160009055506001016200033b565b5090565b6000815190506200036a816200059b565b92915050565b6000602082840312156200038357600080fd5b6000620003938482850162000359565b91505092915050565b6000620003ab601f836200042e565b91507f45524332303a206d696e7420746f20746865207a65726f2061646472657373006000830152602082019050919050565b620003e981620004fd565b82525050565b600060208201905081810360008301526200040a816200039c565b9050919050565b6000602082019050620004286000830184620003de565b92915050565b600082825260208201905092915050565b60006200044c82620004fd565b91506200045983620004fd565b9250827fffffffffffffffffffffffffffffffffffffffffffffffffffffffffffffffff038211156200049157620004906200053d565b5b828201905092915050565b6000620004a982620004fd565b9150620004b683620004fd565b9250817fffffffffffffffffffffffffffffffffffffffffffffffffffffffffffffffff0483118215151615620004f257620004f16200053d565b5b828202905092915050565b6000819050919050565b600060028204905060018216806200052057607f821691505b602082108114156200053757620005366200056c565b5b50919050565b7f4e487b7100000000000000000000000000000000000000000000000000000000600052601160045260246000fd5b7f4e487b7100000000000000000000000000000000000000000000000000000000600052602260045260246000fd5b620005a681620004fd565b8114620005b257600080fd5b50565b61134180620005c56000396000f3fe608060405234801561001057600080fd5b50600436106100a95760003560e01c80633950935111610071578063395093511461016857806370a082311461019857806395d89b41146101c8578063a457c2d7146101e6578063a9059cbb14610216578063dd62ed3e14610246576100a9565b806306fdde03146100ae578063095ea7b3146100cc57806318160ddd146100fc57806323b872dd1461011a578063313ce5671461014a575b600080fd5b6100b6610276565b6040516100c3919061100a565b60405180910390f35b6100e660048036038101906100e19190610c83565b610308565b6040516100f39190610fef565b60405180910390f35b610104610326565b604051610111919061110c565b60405180910390f35b610134600480360381019061012f9190610c34565b610330565b6040516101419190610fef565b60405180910390f35b610152610428565b60405161015f9190611127565b60405180910390f35b610182600480360381019061017d9190610c83565b610431565b60405161018f9190610fef565b60405180910390f35b6101b260048036038101906101ad9190610bcf565b6104dd565b6040516101bf919061110c565b60405180910390f35b6101d0610525565b6040516101dd919061100a565b60405180910390f35b61020060048036038101906101fb9190610c83565b6105b7565b60405161020d9190610fef565b60405180910390f35b610230600480360381019061022b9190610c83565b6106a2565b60405161023d9190610fef565b60405180910390f35b610260600480360381019061025b9190610bf8565b6106c0565b60405161026d919061110c565b60405180910390f35b6060600380546102859061123c565b80601f01602080910402602001604051908101604052809291908181526020018280546102b19061123c565b80156102fe5780601f106102d3576101008083540402835291602001916102fe565b820191906000526020600020905b8154815290600101906020018083116102e157829003601f168201915b5050505050905090565b600061031c610315610747565b848461074f565b6001905092915050565b6000600254905090565b600061033d84848461091a565b6000600160008673ffffffffffffffffffffffffffffffffffffffff1673ffffffffffffffffffffffffffffffffffffffff1681526020019081526020016000206000610388610747565b73ffffffffffffffffffffffffffffffffffffffff1673ffffffffffffffffffffffffffffffffffffffff16815260200190815260200160002054905082811015610408576040517f08c379a00000000000000000000000000000000000000000000000000000000081526004016103ff9061108c565b60405180910390fd5b61041c85610414610747565b85840361074f565b60019150509392505050565b60006012905090565b60006104d361043e610747565b84846001600061044c610747565b73ffffffffffffffffffffffffffffffffffffffff1673ffffffffffffffffffffffffffffffffffffffff16815260200190815260200160002060008873ffffffffffffffffffffffffffffffffffffffff1673ffffffffffffffffffffffffffffffffffffffff168152602001908152602001600020546104ce919061115e565b61074f565b6001905092915050565b60008060008373ffffffffffffffffffffffffffffffffffffffff1673ffffffffffffffffffffffffffffffffffffffff168152602001908152602001600020549050919050565b6060600480546105349061123c565b80601f01602080910402602001604051908101604052809291908181526020018280546105609061123c565b80156105ad5780601f10610582576101008083540402835291602001916105ad565b820191906000526020600020905b81548152906001019060200180831161059057829003601f168201915b5050505050905090565b600080600160006105c6610747565b73ffffffffffffffffffffffffffffffffffffffff1673ffffffffffffffffffffffffffffffffffffffff16815260200190815260200160002060008573ffffffffffffffffffffffffffffffffffffffff1673ffffffffffffffffffffffffffffffffffffffff16815260200190815260200160002054905082811015610683576040517f08c379a000000000000000000000000000000000000000000000000000000000815260040161067a906110ec565b60405180910390fd5b61069761068e610747565b8585840361074f565b600191505092915050565b60006106b66106af610747565b848461091a565b6001905092915050565b6000600160008473ffffffffffffffffffffffffffffffffffffffff1673ffffffffffffffffffffffffffffffffffffffff16815260200190815260200160002060008373ffffffffffffffffffffffffffffffffffffffff1673ffffffffffffffffffffffffffffffffffffffff16815260200190815260200160002054905092915050565b600033905090565b600073ffffffffffffffffffffffffffffffffffffffff168373ffffffffffffffffffffffffffffffffffffffff1614156107bf576040517f08c379a00000000000000000000000000000000000000000000000000000000081526004016107b6906110cc565b60405180910390fd5b600073ffffffffffffffffffffffffffffffffffffffff168273ffffffffffffffffffffffffffffffffffffffff16141561082f576040517f08c379a00000000000000000000000000000000000000000000000000000000081526004016108269061104c565b60405180910390fd5b80600160008573ffffffffffffffffffffffffffffffffffffffff1673ffffffffffffffffffffffffffffffffffffffff16815260200190815260200160002060008473ffffffffffffffffffffffffffffffffffffffff1673ffffffffffffffffffffffffffffffffffffffff168152602001908152602001600020819055508173ffffffffffffffffffffffffffffffffffffffff168373ffffffffffffffffffffffffffffffffffffffff167f8c5be1e5ebec7d5bd14f71427d1e84f3dd0314c0f7b2291e5b200ac8c7c3b9258360405161090d919061110c565b60405180910390a3505050565b600073ffffffffffffffffffffffffffffffffffffffff168373ffffffffffffffffffffffffffffffffffffffff16141561098a576040517f08c379a0000000000000000000000000000000000000000000000000000000008152600401610981906110ac565b60405180910390fd5b600073ffffffffffffffffffffffffffffffffffffffff168273ffffffffffffffffffffffffffffffffffffffff1614156109fa576040517f08c379a00000000000000000000000000000000000000000000000000000000081526004016109f19061102c565b60405180910390fd5b610a05838383610b9b565b60008060008573ffffffffffffffffffffffffffffffffffffffff1673ffffffffffffffffffffffffffffffffffffffff16815260200190815260200160002054905081811015610a8b576040517f08c379a0000000000000000000000000000000000000000000000000000000008152600401610a829061106c565b60405180910390fd5b8181036000808673ffffffffffffffffffffffffffffffffffffffff1673ffffffffffffffffffffffffffffffffffffffff16815260200190815260200160002081905550816000808573ffffffffffffffffffffffffffffffffffffffff1673ffffffffffffffffffffffffffffffffffffffff1681526020019081526020016000206000828254610b1e919061115e565b925050819055508273ffffffffffffffffffffffffffffffffffffffff168473ffffffffffffffffffffffffffffffffffffffff167fddf252ad1be2c89b69c2b068fc378daa952ba7f163c4a11628f55a4df523b3ef84604051610b82919061110c565b60405180910390a3610b95848484610ba0565b50505050565b505050565b505050565b600081359050610bb4816112dd565b92915050565b600081359050610bc9816112f4565b92915050565b600060208284031215610be157600080fd5b6000610bef84828501610ba5565b91505092915050565b60008060408385031215610c0b57600080fd5b6000610c1985828601610ba5565b9250506020610c2a85828601610ba5565b9150509250929050565b600080600060608486031215610c4957600080fd5b6000610c5786828701610ba5565b9350506020610c6886828701610ba5565b9250506040610c7986828701610bba565b9150509250925092565b60008060408385031215610c9657600080fd5b6000610ca485828601610ba5565b9250506020610cb585828601610bba565b9150509250929050565b610cc8816111c6565b82525050565b6000610cd982611142565b610ce3818561114d565b9350610cf3818560208601611209565b610cfc816112cc565b840191505092915050565b6000610d1460238361114d565b91507f45524332303a207472616e7366657220746f20746865207a65726f206164647260008301527f65737300000000000000000000000000000000000000000000000000000000006020830152604082019050919050565b6000610d7a60228361114d565b91507f45524332303a20617070726f766520746f20746865207a65726f20616464726560008301527f73730000000000000000000000000000000000000000000000000000000000006020830152604082019050919050565b6000610de060268361114d565b91507f45524332303a207472616e7366657220616d6f756e742065786365656473206260008301527f616c616e636500000000000000000000000000000000000000000000000000006020830152604082019050919050565b6000610e4660288361114d565b91507f45524332303a207472616e7366657220616d6f756e742065786365656473206160008301527f6c6c6f77616e63650000000000000000000000000000000000000000000000006020830152604082019050919050565b6000610eac60258361114d565b91507f45524332303a207472616e736665722066726f6d20746865207a65726f20616460008301527f64726573730000000000000000000000000000000000000000000000000000006020830152604082019050919050565b6000610f1260248361114d565b91507f45524332303a20617070726f76652066726f6d20746865207a65726f2061646460008301527f72657373000000000000000000000000000000000000000000000000000000006020830152604082019050919050565b6000610f7860258361114d565b91507f45524332303a2064656372656173656420616c6c6f77616e63652062656c6f7760008301527f207a65726f0000000000000000000000000000000000000000000000000000006020830152604082019050919050565b610fda816111f2565b82525050565b610fe9816111fc565b82525050565b60006020820190506110046000830184610cbf565b92915050565b600060208201905081810360008301526110248184610cce565b905092915050565b6000602082019050818103600083015261104581610d07565b9050919050565b6000602082019050818103600083015261106581610d6d565b9050919050565b6000602082019050818103600083015261108581610dd3565b9050919050565b600060208201905081810360008301526110a581610e39565b9050919050565b600060208201905081810360008301526110c581610e9f565b9050919050565b600060208201905081810360008301526110e581610f05565b9050919050565b6000602082019050818103600083015261110581610f6b565b9050919050565b60006020820190506111216000830184610fd1565b92915050565b600060208201905061113c6000830184610fe0565b92915050565b600081519050919050565b600082825260208201905092915050565b6000611169826111f2565b9150611174836111f2565b9250827fffffffffffffffffffffffffffffffffffffffffffffffffffffffffffffffff038211156111a9576111a861126e565b5b828201905092915050565b60006111bf826111d2565b9050919050565b60008115159050919050565b600073ffffffffffffffffffffffffffffffffffffffff82169050919050565b6000819050919050565b600060ff82169050919050565b60005b8381101561122757808201518184015260208101905061120c565b83811115611236576000848401525b50505050565b6000600282049050600182168061125457607f821691505b602082108114156112685761126761129d565b5b50919050565b7f4e487b7100000000000000000000000000000000000000000000000000000000600052601160045260246000fd5b7f4e487b7100000000000000000000000000000000000000000000000000000000600052602260045260246000fd5b6000601f19601f8301169050919050565b6112e6816111b4565b81146112f157600080fd5b50565b6112fd816111f2565b811461130857600080fd5b5056fea2646970667358221220dc65a6da80e464200c4371dc44879fdb55f0fcde00581f28e15ef03e881f714b64736f6c63430008000033",
  "immutableReferences": {},
  "source": "// SPDX-License-Identifier:MIT\n\npragma solidity 0.8.0;\n\nimport \"@openzeppelin/contracts/token/ERC20/ERC20.sol\";\nimport \"@chainlink/contracts/src/v0.8/interfaces/AggregatorV3Interface.sol\";\nimport \"./FBMoney.sol\";\n\nstruct Stake {\n\tuint256 dateOfValue;\n\tuint256 amount;\n}\nstruct Bonus {\n\tuint256 amount;\n\tuint256 dateOfValue;\n}\n\ncontract FBStaker {\n\tuint256 _Rate = 1;\n\tmapping(address => mapping(address => Stake)) stakeList; // Liste des stakes en cours\n\tmapping(address => Bonus) bonusList; // List des bonus par utilisateur\n\tmapping(address => uint256) tokenPool; // List des tokens rcuprs\n\n\tuint8 _Decimals; // Decimals of our own Mondey\n\tIERC20 private _FrenchBorgTokenProvider;\n\n\tmodifier notNull256(uint256 v) {\n\t\trequire(v != 0);\n\t\t_;\n\t}\n\tmodifier notNullAddress(address v) {\n\t\trequire(v != address(0));\n\t\t_;\n\t}\n\n\tevent TokenStaked(address adr, IERC20 Tkn, uint256 amount);\n\tevent TokenUnstaked(address adr, IERC20 Tkn, uint256 amount);\n\tevent BonusRound(address Customer, IERC20 Token);\n\tevent BonusRetrieved(address adr, uint256 amount);\n\n\tconstructor() {\n\t\t_FrenchBorgTokenProvider = IERC20(new FBMoney(1000)); // Our home-made money\n\t\t_Decimals = 18;\n\t}\n\n\t/**\n\t * @dev Returns the balance of our home made token for bonuses\n\t */\n\tfunction getMoneyBalance() external view returns (uint256) {\n\t\treturn _FrenchBorgTokenProvider.balanceOf(msg.sender);\n\t}\n\n\t/**\n\t * @dev debugging purpose: Returns the amount of money staked per token\n\t */\n\tfunction getTokenStakedBalance(ERC20 Token)\n\t\texternal\n\t\tview\n\t\treturns (uint256)\n\t{\n\t\treturn stakeList[msg.sender][address(Token)].amount;\n\t}\n\n\t/**\n\t * @dev Make money compatibles if they don't have the same Decimals\n\t */\n\tfunction scalePrice(\n\t\tint256 _price,\n\t\tuint8 _priceDecimals,\n\t\tuint8 _decimals\n\t) internal pure returns (int256) {\n\t\t// provient de https://docs.chain.link/docs/get-the-latest-price/\n\t\t// permet d'adapter les prix en fctn des decimales de chaque monnaie\n\t\tif (_priceDecimals < _decimals) {\n\t\t\treturn _price * int256(10**uint256(_decimals - _priceDecimals));\n\t\t} else if (_priceDecimals > _decimals) {\n\t\t\treturn _price / int256(10**uint256(_priceDecimals - _decimals));\n\t\t}\n\t\treturn _price;\n\t}\n\n\t/**\n\t * @dev Retourne le ratio temporel en utilisant le delta des blocks\n\t * @param Stk Current stake for customers\n\t */\n\tfunction getRate(Stake memory Stk) internal view returns (uint256) {\n\t\trequire(block.number > Stk.dateOfValue, \"invalid block number\");\n\t\t// _Rate vaut 1, parit avec ethereum\n\t\t// 199385 = 30j * 24h * 60mn * 60s / 13blk\n\t\t// return Delta Block * Taux par mois / BlockParMois\n\t\treturn\n\t\t\tuint256(\n\t\t\t\t((uint256(block.number - Stk.dateOfValue) * _Rate) /\n\t\t\t\t\tuint256(199385))\n\t\t\t);\n\t}\n\n\t/**\n\t * @dev Given a stake, returns the value of potential bonuses\n\t * @param Stk Current stake for customers\n\t * @param Aggregator used for getting Token value\n\t */\n\tfunction computeBonus(Stake memory Stk, address Aggregator)\n\t\tinternal\n\t\tview\n\t\treturns (uint256)\n\t{\n\t\t// On rcupere le prix en ETH\n\t\t(, int256 ratio, , , ) = AggregatorV3Interface(Aggregator)\n\t\t\t.latestRoundData();\n\t\tuint8 tokenDecimals = AggregatorV3Interface(Aggregator).decimals();\n\t\t// On remet a l'echelle en fonction des decimales de chaque monnaie si besoin\n\t\tif (tokenDecimals != _Decimals)\n\t\t\treturn\n\t\t\t\tStk.amount *\n\t\t\t\tgetRate(Stk) *\n\t\t\t\tuint256(scalePrice(ratio, tokenDecimals, _Decimals) * ratio);\n\t\treturn Stk.amount * getRate(Stk) * uint256(ratio);\n\t}\n\n\t/**\n\t * @dev Internal function for evaluating and aggregating Bonuses\n\t * @param customer for which customer ?\n\t * @param Stk Current stake for customers\n\t * @param Aggregator used for getting Token value\n\t */\n\tfunction aggregateBonus(\n\t\taddress customer,\n\t\taddress Aggregator,\n\t\tStake memory Stk\n\t) internal {\n\t\t// evaluate new potential bonus\n\t\tuint256 bonus = computeBonus(Stk, Aggregator);\n\t\tif (bonus > 0) bonusList[customer].amount += bonus;\n\t}\n\n\t/**\n\t * @dev Customer retrieves all his acquired bonuses - to be called by the owner of the contract\n\t * @param customer customer who wants to get the FBMoney back\n\t */\n\tfunction retrieveBonuses(address customer)\n\t\texternal\n\t\tnotNullAddress(customer)\n\t{\n\t\tuint256 bonus = bonusList[customer].amount;\n\n\t\t// Transfer Bonuses to customer\n\t\tif (bonus != 0) {\n\t\t\tbonusList[customer].amount = 0;\n\t\t\temit BonusRetrieved(customer, bonus);\n\t\t\t_FrenchBorgTokenProvider.transferFrom(msg.sender, customer, bonus);\n\t\t}\n\t}\n\n\t/**\n\t * @dev Stake swap some tokens for our money token - To be called by the customer\n\t * @param Token customer's Token\n\t * @param amount amount of customer's token to Stake\n\t * @param Aggregator Provided by JS for the correct PAIR\n\t */\n\tfunction StakeTokens(\n\t\tIERC20 Token,\n\t\tuint256 amount,\n\t\taddress Aggregator\n\t)\n\t\texternal\n\t\tnotNull256(amount)\n\t\tnotNullAddress(address(Token))\n\t\tnotNullAddress(Aggregator)\n\t{\n\t\t// Trouve la reference du client\n\t\tStake memory Stk = stakeList[msg.sender][address(Token)];\n\n\t\t// Compute and transfer Bonus\n\t\t//Le stake n'est peut etre pas vide, aussi on doit d'abord mettre a jour les bonuses\n\t\tif (Stk.amount > 0) aggregateBonus(msg.sender, Aggregator, Stk);\n\t\t// Met  jour maintenant, apres avoir aggrg, la balance de tokens\n\t\tStk.amount += amount;\n\t\tStk.dateOfValue = block.number;\n\t\tstakeList[msg.sender][address(Token)] = Stk;\n\t\temit TokenStaked(msg.sender, Token, amount);\n\t\t// Transfer the tokens, supposing the approve has been done\n\t\tToken.transferFrom(msg.sender, address(this), amount);\n\t}\n\n\t/**\n\t * @dev Unstake the staked tokens - To be called by the owner of the contract\n\t * @param Customer Customer's address\n\t * @param Token customer's Token\n\t * @param amount amount of customer's token to Stake\n\t * @param Aggregator Provided by JS for the correct PAIR\n\t */\n\tfunction UnstakeTokens(\n\t\taddress Customer,\n\t\tIERC20 Token,\n\t\tuint256 amount,\n\t\taddress Aggregator\n\t)\n\t\texternal\n\t\tnotNull256(amount)\n\t\tnotNullAddress(Customer)\n\t\tnotNullAddress(address(Token))\n\t\tnotNullAddress(Aggregator)\n\t{\n\t\t// Trouve la reference du client\n\t\tStake memory Stk = stakeList[Customer][address(Token)];\n\t\t// On essai de retirer de trop ?\n\t\trequire(Stk.amount >= amount, \"amount too high\");\n\t\t// Compute and aggregate Bonus if required\n\t\tif (Stk.amount > 0) aggregateBonus(Customer, Aggregator, Stk);\n\n\t\tStk.amount -= amount;\n\t\tStk.dateOfValue = block.number;\n\t\tstakeList[Customer][address(Token)] = Stk;\n\t\temit TokenUnstaked(Customer, Token, amount);\n\n\t\tToken.transfer(Customer, amount);\n\t}\n\n\t/**\n\t * @dev Triggers bonus computation, for calling on timer\n\t * @param Customer Customer's address\n\t * @param Token customer's Token\n\t * @param Aggregator Provided by JS for calulating Parity\n\t */\n\tfunction bonusRound(\n\t\taddress Customer,\n\t\tIERC20 Token,\n\t\taddress Aggregator\n\t)\n\t\texternal\n\t\tnotNullAddress(Customer)\n\t\tnotNullAddress(address(Token))\n\t\tnotNullAddress(Aggregator)\n\t{\n\t\t// Trouve la reference du client\n\t\tStake memory Stk = stakeList[Customer][address(Token)];\n\t\t// Compute and aggregate Bonus if necessary\n\t\tif (Stk.amount > 0) {\n\t\t\taggregateBonus(Customer, Aggregator, Stk);\n\t\t\tStk.dateOfValue = block.number;\n\t\t\tstakeList[Customer][address(Token)] = Stk;\n\t\t}\n\t\temit BonusRound(Customer, Token);\n\t}\n}\n",
  "sourcePath": "/home/pec/Formation/Ethereum/Staking/contracts/FBStaker.sol",
  "compiler": {
    "name": "solc",
    "version": "0.8.0+commit.c7dfd78e.Emscripten.clang"
  },
  "schemaVersion": "3.4.3",
  "updatedAt": "2021-11-08T08:07:40.493Z",
  "networkType": "ethereum",
  "devdoc": {
    "kind": "dev",
    "methods": {
      "StakeTokens(address,uint256,address)": {
        "details": "Stake swap some tokens for our money token - To be called by the customer",
        "params": {
          "Aggregator": "Provided by JS for the correct PAIR",
          "Token": "customer's Token",
          "amount": "amount of customer's token to Stake"
        }
      },
      "UnstakeTokens(address,address,uint256,address)": {
        "details": "Unstake the staked tokens - To be called by the owner of the contract",
        "params": {
          "Aggregator": "Provided by JS for the correct PAIR",
          "Customer": "Customer's address",
          "Token": "customer's Token",
          "amount": "amount of customer's token to Stake"
        }
      },
      "bonusRound(address,address,address)": {
        "details": "Triggers bonus computation, for calling on timer",
        "params": {
          "Aggregator": "Provided by JS for calulating Parity",
          "Customer": "Customer's address",
          "Token": "customer's Token"
        }
      },
      "getMoneyBalance()": {
        "details": "Returns the balance of our home made token for bonuses"
      },
      "getTokenStakedBalance(address)": {
        "details": "debugging purpose: Returns the amount of money staked per token"
      },
      "retrieveBonuses(address)": {
        "details": "Customer retrieves all his acquired bonuses - to be called by the owner of the contract",
        "params": {
          "customer": "customer who wants to get the FBMoney back"
        }
      }
    },
    "version": 1
  },
  "userdoc": {
    "kind": "user",
    "methods": {},
    "version": 1
  }
}