{
  "contractName": "FBStake",
  "abi": [
    {
      "inputs": [
        {
          "internalType": "address",
          "name": "owner",
          "type": "address"
        },
        {
          "internalType": "address",
          "name": "customer",
          "type": "address"
        },
        {
          "internalType": "contract IERC20",
          "name": "token",
          "type": "address"
        },
        {
          "internalType": "uint8",
          "name": "tokenAmount",
          "type": "uint8"
        },
        {
          "internalType": "contract IERC20",
          "name": "FBToken",
          "type": "address"
        },
        {
          "internalType": "uint8",
          "name": "rate",
          "type": "uint8"
        }
      ],
      "stateMutability": "nonpayable",
      "type": "constructor"
    },
    {
      "anonymous": false,
      "inputs": [
        {
          "indexed": false,
          "internalType": "address",
          "name": "Customer",
          "type": "address"
        },
        {
          "indexed": false,
          "internalType": "uint8",
          "name": "tokenAmount",
          "type": "uint8"
        }
      ],
      "name": "StakeCreated",
      "type": "event"
    },
    {
      "inputs": [],
      "name": "getAmount",
      "outputs": [
        {
          "internalType": "uint256",
          "name": "",
          "type": "uint256"
        }
      ],
      "stateMutability": "view",
      "type": "function"
    }
  ],
  "bytecode": "0x608060405234801561001057600080fd5b50604051610707380380610707833981810160405281019061003291906102e9565b8260008160ff16141561004457600080fd5b86600073ffffffffffffffffffffffffffffffffffffffff168173ffffffffffffffffffffffffffffffffffffffff16141561007f57600080fd5b87600260006101000a81548173ffffffffffffffffffffffffffffffffffffffff021916908373ffffffffffffffffffffffffffffffffffffffff16021790555086600160006101000a81548173ffffffffffffffffffffffffffffffffffffffff021916908373ffffffffffffffffffffffffffffffffffffffff1602179055504260008190555085600360006101000a81548173ffffffffffffffffffffffffffffffffffffffff021916908373ffffffffffffffffffffffffffffffffffffffff16021790555084600260146101000a81548160ff021916908360ff16021790555083600460006101000a81548173ffffffffffffffffffffffffffffffffffffffff021916908373ffffffffffffffffffffffffffffffffffffffff1602179055508573ffffffffffffffffffffffffffffffffffffffff166323b872dd600160009054906101000a900473ffffffffffffffffffffffffffffffffffffffff16600260009054906101000a900473ffffffffffffffffffffffffffffffffffffffff16600260149054906101000a900460ff166040518463ffffffff1660e01b8152600401610235939291906103b9565b602060405180830381600087803b15801561024f57600080fd5b505af1158015610263573d6000803e3d6000fd5b505050506040513d601f19601f820116820180604052508101906102879190610372565b5050505050505050506104bb565b6000815190506102a48161045f565b92915050565b6000815190506102b981610476565b92915050565b6000815190506102ce8161048d565b92915050565b6000815190506102e3816104a4565b92915050565b60008060008060008060c0878903121561030257600080fd5b600061031089828a01610295565b965050602061032189828a01610295565b955050604061033289828a016102bf565b945050606061034389828a016102d4565b935050608061035489828a016102bf565b92505060a061036589828a016102d4565b9150509295509295509295565b60006020828403121561038457600080fd5b6000610392848285016102aa565b91505092915050565b6103a4816103f0565b82525050565b6103b38161044d565b82525050565b60006060820190506103ce600083018661039b565b6103db602083018561039b565b6103e860408301846103aa565b949350505050565b60006103fb82610420565b9050919050565b60008115159050919050565b6000610419826103f0565b9050919050565b600073ffffffffffffffffffffffffffffffffffffffff82169050919050565b600060ff82169050919050565b600061045882610440565b9050919050565b610468816103f0565b811461047357600080fd5b50565b61047f81610402565b811461048a57600080fd5b50565b6104968161040e565b81146104a157600080fd5b50565b6104ad81610440565b81146104b857600080fd5b50565b61023d806104ca6000396000f3fe608060405234801561001057600080fd5b506004361061002b5760003560e01c8063d321fe2914610030575b600080fd5b61003861004e565b6040516100459190610199565b60405180910390f35b6000600360009054906101000a900473ffffffffffffffffffffffffffffffffffffffff1673ffffffffffffffffffffffffffffffffffffffff166370a08231600160009054906101000a900473ffffffffffffffffffffffffffffffffffffffff166040518263ffffffff1660e01b81526004016100cd919061017e565b60206040518083038186803b1580156100e557600080fd5b505afa1580156100f9573d6000803e3d6000fd5b505050506040513d601f19601f8201168201806040525081019061011d9190610137565b905090565b600081519050610131816101f0565b92915050565b60006020828403121561014957600080fd5b600061015784828501610122565b91505092915050565b610169816101b4565b82525050565b610178816101e6565b82525050565b60006020820190506101936000830184610160565b92915050565b60006020820190506101ae600083018461016f565b92915050565b60006101bf826101c6565b9050919050565b600073ffffffffffffffffffffffffffffffffffffffff82169050919050565b6000819050919050565b6101f9816101e6565b811461020457600080fd5b5056fea2646970667358221220361bcdcfae2829f4a0b1e7b71fdff10c73b5ddfaffe6d413b5476e7fd9198aac64736f6c63430008000033",
  "immutableReferences": {},
  "source": "// SPDX-License-Identifier:MIT\npragma solidity 0.8.0;\nimport  \"@openzeppelin/contracts/token/ERC20/ERC20.sol\";\n\n\ncontract FBStake {\n\n    uint256 private _Time;\n    address private _Customer;\n    address private _Provider;\n    uint8 private _tokenAmount;\n    uint8 private _FBMoneyAmount;\n    IERC20 private _token;\n    IERC20 private _FBToken;\n\n\nevent StakeCreated(address Customer,uint8 tokenAmount);\n\nmodifier AmountNotNull(uint8 amnt) {\n    require(amnt!=0);\n    _;\n}\n\nmodifier AddressNotNull(address adr) {\n    require(adr!=address(0));\n    _;\n}\n\n function getAmount() view external returns(uint256) {\n     return _token.balanceOf(_Customer);\n } \n\n\n    constructor(address owner, address customer, IERC20 token, uint8 tokenAmount, IERC20 FBToken, uint8 rate)\n        AmountNotNull(tokenAmount)\n        AddressNotNull(owner)\n        \n    {\n        \n        _Provider = owner; \n        _Customer = customer;     \n        _Time = block.timestamp;\n        _token = token;\n        _tokenAmount=tokenAmount;\n        _FBToken = FBToken;\n        \n        // Calculer le montant de conversion du token via ether\n        // Effectuer le tansfert  de tokenAmount\n        // Effectuer le transfert de FBToken\n        // mettre a jour _FBMoneyAmount\n        \n        token.transferFrom(_Customer,_Provider, _tokenAmount);\n        //emit StakeCreated(msg.sender,tokenAmount);\n    }\n    \n    \n}",
  "sourcePath": "/home/pec/Formation/Ethereum/Staking/contracts/FBStake.sol",
  "compiler": {
    "name": "solc",
    "version": "0.8.0+commit.c7dfd78e.Emscripten.clang"
  },
  "schemaVersion": "3.4.3",
  "updatedAt": "2021-11-03T14:36:49.104Z",
  "devdoc": {
    "kind": "dev",
    "methods": {},
    "version": 1
  },
  "userdoc": {
    "kind": "user",
    "methods": {},
    "version": 1
  }
}